{
  "_format": "hh-sol-artifact-1",
  "contractName": "Paripp",
  "sourceName": "contracts/Paripp.sol",
  "abi": [
    {
      "inputs": [],
      "stateMutability": "nonpayable",
      "type": "constructor"
    },
    {
      "anonymous": false,
      "inputs": [
        {
          "indexed": true,
          "internalType": "address",
          "name": "owner",
          "type": "address"
        },
        {
          "indexed": true,
          "internalType": "address",
          "name": "approved",
          "type": "address"
        },
        {
          "indexed": true,
          "internalType": "uint256",
          "name": "tokenId",
          "type": "uint256"
        }
      ],
      "name": "Approval",
      "type": "event"
    },
    {
      "anonymous": false,
      "inputs": [
        {
          "indexed": true,
          "internalType": "address",
          "name": "owner",
          "type": "address"
        },
        {
          "indexed": true,
          "internalType": "address",
          "name": "operator",
          "type": "address"
        },
        {
          "indexed": false,
          "internalType": "bool",
          "name": "approved",
          "type": "bool"
        }
      ],
      "name": "ApprovalForAll",
      "type": "event"
    },
    {
      "anonymous": false,
      "inputs": [
        {
          "indexed": false,
          "internalType": "uint256",
          "name": "_fromTokenId",
          "type": "uint256"
        },
        {
          "indexed": false,
          "internalType": "uint256",
          "name": "_toTokenId",
          "type": "uint256"
        }
      ],
      "name": "BatchMetadataUpdate",
      "type": "event"
    },
    {
      "anonymous": false,
      "inputs": [
        {
          "indexed": false,
          "internalType": "uint256",
          "name": "_tokenId",
          "type": "uint256"
        }
      ],
      "name": "MetadataUpdate",
      "type": "event"
    },
    {
      "anonymous": false,
      "inputs": [
        {
          "indexed": true,
          "internalType": "uint256",
          "name": "tokenId",
          "type": "uint256"
        },
        {
          "indexed": false,
          "internalType": "address",
          "name": "owner",
          "type": "address"
        },
        {
          "indexed": false,
          "internalType": "address",
          "name": "seller",
          "type": "address"
        },
        {
          "indexed": false,
          "internalType": "uint256",
          "name": "price",
          "type": "uint256"
        },
        {
          "indexed": false,
          "internalType": "bool",
          "name": "currentlyListed",
          "type": "bool"
        }
      ],
      "name": "TokenListedSuccess",
      "type": "event"
    },
    {
      "anonymous": false,
      "inputs": [
        {
          "indexed": true,
          "internalType": "address",
          "name": "from",
          "type": "address"
        },
        {
          "indexed": true,
          "internalType": "address",
          "name": "to",
          "type": "address"
        },
        {
          "indexed": true,
          "internalType": "uint256",
          "name": "tokenId",
          "type": "uint256"
        }
      ],
      "name": "Transfer",
      "type": "event"
    },
    {
      "inputs": [
        {
          "internalType": "uint256",
          "name": "tokenId",
          "type": "uint256"
        }
      ],
      "name": "ListItem",
      "outputs": [],
      "stateMutability": "nonpayable",
      "type": "function"
    },
    {
      "inputs": [
        {
          "internalType": "address",
          "name": "to",
          "type": "address"
        },
        {
          "internalType": "uint256",
          "name": "tokenId",
          "type": "uint256"
        }
      ],
      "name": "approve",
      "outputs": [],
      "stateMutability": "nonpayable",
      "type": "function"
    },
    {
      "inputs": [
        {
          "internalType": "address",
          "name": "owner",
          "type": "address"
        }
      ],
      "name": "balanceOf",
      "outputs": [
        {
          "internalType": "uint256",
          "name": "",
          "type": "uint256"
        }
      ],
      "stateMutability": "view",
      "type": "function"
    },
    {
      "inputs": [
        {
          "internalType": "string",
          "name": "tokenURI",
          "type": "string"
        },
        {
          "internalType": "uint256",
          "name": "price",
          "type": "uint256"
        }
      ],
      "name": "createToken",
      "outputs": [
        {
          "internalType": "uint256",
          "name": "",
          "type": "uint256"
        }
      ],
      "stateMutability": "payable",
      "type": "function"
    },
    {
      "inputs": [
        {
          "internalType": "uint256",
          "name": "tokenId",
          "type": "uint256"
        }
      ],
      "name": "executeSale",
      "outputs": [],
      "stateMutability": "payable",
      "type": "function"
    },
    {
      "inputs": [],
      "name": "getAllNFTs",
      "outputs": [
        {
          "components": [
            {
              "internalType": "uint256",
              "name": "tokenId",
              "type": "uint256"
            },
            {
              "internalType": "uint256",
              "name": "totalHistory",
              "type": "uint256"
            },
            {
              "internalType": "address payable",
              "name": "owner",
              "type": "address"
            },
            {
              "internalType": "address payable",
              "name": "seller",
              "type": "address"
            },
            {
              "internalType": "uint256",
              "name": "price",
              "type": "uint256"
            },
            {
              "internalType": "bool",
              "name": "currentlyListed",
              "type": "bool"
            }
          ],
          "internalType": "struct Paripp.ListedToken[]",
          "name": "",
          "type": "tuple[]"
        }
      ],
      "stateMutability": "view",
      "type": "function"
    },
    {
      "inputs": [
        {
          "internalType": "uint256",
          "name": "tokenId",
          "type": "uint256"
        }
      ],
      "name": "getApproved",
      "outputs": [
        {
          "internalType": "address",
          "name": "",
          "type": "address"
        }
      ],
      "stateMutability": "view",
      "type": "function"
    },
    {
      "inputs": [],
      "name": "getCurrentToken",
      "outputs": [
        {
          "internalType": "uint256",
          "name": "",
          "type": "uint256"
        }
      ],
      "stateMutability": "view",
      "type": "function"
    },
    {
      "inputs": [],
      "name": "getLatestIdToListedToken",
      "outputs": [
        {
          "components": [
            {
              "internalType": "uint256",
              "name": "tokenId",
              "type": "uint256"
            },
            {
              "internalType": "uint256",
              "name": "totalHistory",
              "type": "uint256"
            },
            {
              "internalType": "address payable",
              "name": "owner",
              "type": "address"
            },
            {
              "internalType": "address payable",
              "name": "seller",
              "type": "address"
            },
            {
              "internalType": "uint256",
              "name": "price",
              "type": "uint256"
            },
            {
              "internalType": "bool",
              "name": "currentlyListed",
              "type": "bool"
            }
          ],
          "internalType": "struct Paripp.ListedToken",
          "name": "",
          "type": "tuple"
        }
      ],
      "stateMutability": "view",
      "type": "function"
    },
    {
      "inputs": [],
      "name": "getListPrice",
      "outputs": [
        {
          "internalType": "uint256",
          "name": "",
          "type": "uint256"
        }
      ],
      "stateMutability": "view",
      "type": "function"
    },
    {
      "inputs": [
        {
          "internalType": "uint256",
          "name": "tokenId",
          "type": "uint256"
        }
      ],
      "name": "getListedTokenForId",
      "outputs": [
        {
          "components": [
            {
              "internalType": "uint256",
              "name": "tokenId",
              "type": "uint256"
            },
            {
              "internalType": "uint256",
              "name": "totalHistory",
              "type": "uint256"
            },
            {
              "internalType": "address payable",
              "name": "owner",
              "type": "address"
            },
            {
              "internalType": "address payable",
              "name": "seller",
              "type": "address"
            },
            {
              "internalType": "uint256",
              "name": "price",
              "type": "uint256"
            },
            {
              "internalType": "bool",
              "name": "currentlyListed",
              "type": "bool"
            }
          ],
          "internalType": "struct Paripp.ListedToken",
          "name": "",
          "type": "tuple"
        }
      ],
      "stateMutability": "view",
      "type": "function"
    },
    {
      "inputs": [],
      "name": "getMyNFTs",
      "outputs": [
        {
          "components": [
            {
              "internalType": "uint256",
              "name": "tokenId",
              "type": "uint256"
            },
            {
              "internalType": "uint256",
              "name": "totalHistory",
              "type": "uint256"
            },
            {
              "internalType": "address payable",
              "name": "owner",
              "type": "address"
            },
            {
              "internalType": "address payable",
              "name": "seller",
              "type": "address"
            },
            {
              "internalType": "uint256",
              "name": "price",
              "type": "uint256"
            },
            {
              "internalType": "bool",
              "name": "currentlyListed",
              "type": "bool"
            }
          ],
          "internalType": "struct Paripp.ListedToken[]",
          "name": "",
          "type": "tuple[]"
        }
      ],
      "stateMutability": "view",
      "type": "function"
    },
    {
      "inputs": [
        {
          "internalType": "address",
          "name": "owner",
          "type": "address"
        },
        {
          "internalType": "address",
          "name": "operator",
          "type": "address"
        }
      ],
      "name": "isApprovedForAll",
      "outputs": [
        {
          "internalType": "bool",
          "name": "",
          "type": "bool"
        }
      ],
      "stateMutability": "view",
      "type": "function"
    },
    {
      "inputs": [],
      "name": "name",
      "outputs": [
        {
          "internalType": "string",
          "name": "",
          "type": "string"
        }
      ],
      "stateMutability": "view",
      "type": "function"
    },
    {
      "inputs": [
        {
          "internalType": "uint256",
          "name": "tokenId",
          "type": "uint256"
        }
      ],
      "name": "ownerOf",
      "outputs": [
        {
          "internalType": "address",
          "name": "",
          "type": "address"
        }
      ],
      "stateMutability": "view",
      "type": "function"
    },
    {
      "inputs": [
        {
          "internalType": "address",
          "name": "from",
          "type": "address"
        },
        {
          "internalType": "address",
          "name": "to",
          "type": "address"
        },
        {
          "internalType": "uint256",
          "name": "tokenId",
          "type": "uint256"
        }
      ],
      "name": "safeTransferFrom",
      "outputs": [],
      "stateMutability": "nonpayable",
      "type": "function"
    },
    {
      "inputs": [
        {
          "internalType": "address",
          "name": "from",
          "type": "address"
        },
        {
          "internalType": "address",
          "name": "to",
          "type": "address"
        },
        {
          "internalType": "uint256",
          "name": "tokenId",
          "type": "uint256"
        },
        {
          "internalType": "bytes",
          "name": "data",
          "type": "bytes"
        }
      ],
      "name": "safeTransferFrom",
      "outputs": [],
      "stateMutability": "nonpayable",
      "type": "function"
    },
    {
      "inputs": [
        {
          "internalType": "address",
          "name": "operator",
          "type": "address"
        },
        {
          "internalType": "bool",
          "name": "approved",
          "type": "bool"
        }
      ],
      "name": "setApprovalForAll",
      "outputs": [],
      "stateMutability": "nonpayable",
      "type": "function"
    },
    {
      "inputs": [
        {
          "internalType": "bytes4",
          "name": "interfaceId",
          "type": "bytes4"
        }
      ],
      "name": "supportsInterface",
      "outputs": [
        {
          "internalType": "bool",
          "name": "",
          "type": "bool"
        }
      ],
      "stateMutability": "view",
      "type": "function"
    },
    {
      "inputs": [],
      "name": "symbol",
      "outputs": [
        {
          "internalType": "string",
          "name": "",
          "type": "string"
        }
      ],
      "stateMutability": "view",
      "type": "function"
    },
    {
      "inputs": [
        {
          "internalType": "uint256",
          "name": "tokenId",
          "type": "uint256"
        }
      ],
      "name": "tokenURI",
      "outputs": [
        {
          "internalType": "string",
          "name": "",
          "type": "string"
        }
      ],
      "stateMutability": "view",
      "type": "function"
    },
    {
      "inputs": [
        {
          "internalType": "address",
          "name": "from",
          "type": "address"
        },
        {
          "internalType": "address",
          "name": "to",
          "type": "address"
        },
        {
          "internalType": "uint256",
          "name": "tokenId",
          "type": "uint256"
        }
      ],
      "name": "transferFrom",
      "outputs": [],
      "stateMutability": "nonpayable",
      "type": "function"
    },
    {
      "inputs": [
        {
          "internalType": "uint256",
          "name": "_listPrice",
          "type": "uint256"
        }
      ],
      "name": "updateListPrice",
      "outputs": [],
      "stateMutability": "payable",
      "type": "function"
    }
  ],
  "bytecode": "0x608060405267016345785d8a0000600a553480156200001d57600080fd5b506040518060400160405280600681526020017f50617269707000000000000000000000000000000000000000000000000000008152506040518060400160405280600381526020017f505250000000000000000000000000000000000000000000000000000000000081525081600090816200009b919062000371565b508060019081620000ad919062000371565b50505033600960006101000a81548173ffffffffffffffffffffffffffffffffffffffff021916908373ffffffffffffffffffffffffffffffffffffffff16021790555062000458565b600081519050919050565b7f4e487b7100000000000000000000000000000000000000000000000000000000600052604160045260246000fd5b7f4e487b7100000000000000000000000000000000000000000000000000000000600052602260045260246000fd5b600060028204905060018216806200017957607f821691505b6020821081036200018f576200018e62000131565b5b50919050565b60008190508160005260206000209050919050565b60006020601f8301049050919050565b600082821b905092915050565b600060088302620001f97fffffffffffffffffffffffffffffffffffffffffffffffffffffffffffffffff82620001ba565b620002058683620001ba565b95508019841693508086168417925050509392505050565b6000819050919050565b6000819050919050565b6000620002526200024c62000246846200021d565b62000227565b6200021d565b9050919050565b6000819050919050565b6200026e8362000231565b620002866200027d8262000259565b848454620001c7565b825550505050565b600090565b6200029d6200028e565b620002aa81848462000263565b505050565b5b81811015620002d257620002c660008262000293565b600181019050620002b0565b5050565b601f8211156200032157620002eb8162000195565b620002f684620001aa565b8101602085101562000306578190505b6200031e6200031585620001aa565b830182620002af565b50505b505050565b600082821c905092915050565b6000620003466000198460080262000326565b1980831691505092915050565b600062000361838362000333565b9150826002028217905092915050565b6200037c82620000f7565b67ffffffffffffffff81111562000398576200039762000102565b5b620003a4825462000160565b620003b1828285620002d6565b600060209050601f831160018114620003e95760008415620003d4578287015190505b620003e0858262000353565b86555062000450565b601f198416620003f98662000195565b60005b828110156200042357848901518255600182019150602085019450602081019050620003fc565b868310156200044357848901516200043f601f89168262000333565b8355505b6001600288020188555050505b505050505050565b61429b80620004686000396000f3fe6080604052600436106101405760003560e01c8063842eb165116100b6578063c322579c1161006f578063c322579c14610464578063c87b56dd14610480578063d1a88ae5146104bd578063e0391b09146104e8578063e985e9c514610513578063ef2d17461461055057610140565b8063842eb165146103655780638e2645901461038e57806395d89b41146103cb5780639b1225c4146103f6578063a22cb46514610412578063b88d4fde1461043b57610140565b806342842e0e1161010857806342842e0e1461023c578063629cb2e4146102655780636352211e1461029057806368f1945f146102cd57806370a08231146102f857806372b3b6201461033557610140565b806301ffc9a71461014557806306fdde0314610182578063081812fc146101ad578063095ea7b3146101ea57806323b872dd14610213575b600080fd5b34801561015157600080fd5b5061016c60048036038101906101679190612c4a565b61057b565b6040516101799190612c92565b60405180910390f35b34801561018e57600080fd5b506101976105dc565b6040516101a49190612d3d565b60405180910390f35b3480156101b957600080fd5b506101d460048036038101906101cf9190612d95565b61066e565b6040516101e19190612e03565b60405180910390f35b3480156101f657600080fd5b50610211600480360381019061020c9190612e4a565b6106b4565b005b34801561021f57600080fd5b5061023a60048036038101906102359190612e8a565b6107cb565b005b34801561024857600080fd5b50610263600480360381019061025e9190612e8a565b61082b565b005b34801561027157600080fd5b5061027a61084b565b6040516102879190613046565b60405180910390f35b34801561029c57600080fd5b506102b760048036038101906102b29190612d95565b610c27565b6040516102c49190612e03565b60405180910390f35b3480156102d957600080fd5b506102e2610cad565b6040516102ef9190613077565b60405180910390f35b34801561030457600080fd5b5061031f600480360381019061031a9190613092565b610cb7565b60405161032c9190613077565b60405180910390f35b61034f600480360381019061034a91906131f4565b610d6e565b60405161035c9190613077565b60405180910390f35b34801561037157600080fd5b5061038c60048036038101906103879190612d95565b610db0565b005b34801561039a57600080fd5b506103b560048036038101906103b09190612d95565b610e86565b6040516103c291906132cb565b60405180910390f35b3480156103d757600080fd5b506103e0610f98565b6040516103ed9190612d3d565b60405180910390f35b610410600480360381019061040b9190612d95565b61102a565b005b34801561041e57600080fd5b5061043960048036038101906104349190613312565b61129a565b005b34801561044757600080fd5b50610462600480360381019061045d91906133f3565b6112b0565b005b61047e60048036038101906104799190612d95565b611312565b005b34801561048c57600080fd5b506104a760048036038101906104a29190612d95565b6113ac565b6040516104b49190612d3d565b60405180910390f35b3480156104c957600080fd5b506104d26114be565b6040516104df91906132cb565b60405180910390f35b3480156104f457600080fd5b506104fd6115dd565b60405161050a9190613046565b60405180910390f35b34801561051f57600080fd5b5061053a60048036038101906105359190613476565b6117b0565b6040516105479190612c92565b60405180910390f35b34801561055c57600080fd5b50610565611844565b6040516105729190613077565b60405180910390f35b6000634906490660e01b7bffffffffffffffffffffffffffffffffffffffffffffffffffffffff1916827bffffffffffffffffffffffffffffffffffffffffffffffffffffffff191614806105d557506105d482611855565b5b9050919050565b6060600080546105eb906134e5565b80601f0160208091040260200160405190810160405280929190818152602001828054610617906134e5565b80156106645780601f1061063957610100808354040283529160200191610664565b820191906000526020600020905b81548152906001019060200180831161064757829003601f168201915b5050505050905090565b600061067982611937565b6004600083815260200190815260200160002060009054906101000a900473ffffffffffffffffffffffffffffffffffffffff169050919050565b60006106bf82610c27565b90508073ffffffffffffffffffffffffffffffffffffffff168373ffffffffffffffffffffffffffffffffffffffff160361072f576040517f08c379a000000000000000000000000000000000000000000000000000000000815260040161072690613588565b60405180910390fd5b8073ffffffffffffffffffffffffffffffffffffffff1661074e611982565b73ffffffffffffffffffffffffffffffffffffffff16148061077d575061077c81610777611982565b6117b0565b5b6107bc576040517f08c379a00000000000000000000000000000000000000000000000000000000081526004016107b39061361a565b60405180910390fd5b6107c6838361198a565b505050565b6107dc6107d6611982565b82611a43565b61081b576040517f08c379a0000000000000000000000000000000000000000000000000000000008152600401610812906136ac565b60405180910390fd5b610826838383611ad8565b505050565b610846838383604051806020016040528060008152506112b0565b505050565b606060006108596007611dd1565b905060008060005b83811015610974573373ffffffffffffffffffffffffffffffffffffffff16600b600060018461089191906136fb565b815260200190815260200160002060020160009054906101000a900473ffffffffffffffffffffffffffffffffffffffff1673ffffffffffffffffffffffffffffffffffffffff16148061095257503373ffffffffffffffffffffffffffffffffffffffff16600b600060018461090891906136fb565b815260200190815260200160002060030160009054906101000a900473ffffffffffffffffffffffffffffffffffffffff1673ffffffffffffffffffffffffffffffffffffffff16145b156109675760018361096491906136fb565b92505b8080600101915050610861565b5060008267ffffffffffffffff811115610991576109906130c9565b5b6040519080825280602002602001820160405280156109ca57816020015b6109b7612b7a565b8152602001906001900390816109af5790505b50905060005b84811015610c1c573373ffffffffffffffffffffffffffffffffffffffff16600b6000600184610a0091906136fb565b815260200190815260200160002060020160009054906101000a900473ffffffffffffffffffffffffffffffffffffffff1673ffffffffffffffffffffffffffffffffffffffff161480610ac157503373ffffffffffffffffffffffffffffffffffffffff16600b6000600184610a7791906136fb565b815260200190815260200160002060030160009054906101000a900473ffffffffffffffffffffffffffffffffffffffff1673ffffffffffffffffffffffffffffffffffffffff16145b15610c0f576000600182610ad591906136fb565b90506000600b60008381526020019081526020016000209050806040518060c001604052908160008201548152602001600182015481526020016002820160009054906101000a900473ffffffffffffffffffffffffffffffffffffffff1673ffffffffffffffffffffffffffffffffffffffff1673ffffffffffffffffffffffffffffffffffffffff1681526020016003820160009054906101000a900473ffffffffffffffffffffffffffffffffffffffff1673ffffffffffffffffffffffffffffffffffffffff1673ffffffffffffffffffffffffffffffffffffffff168152602001600482015481526020016005820160009054906101000a900460ff161515151581525050848681518110610bf257610bf161372f565b5b6020026020010181905250600185610c0a91906136fb565b945050505b80806001019150506109d0565b508094505050505090565b600080610c3383611ddf565b9050600073ffffffffffffffffffffffffffffffffffffffff168173ffffffffffffffffffffffffffffffffffffffff1603610ca4576040517f08c379a0000000000000000000000000000000000000000000000000000000008152600401610c9b906137aa565b60405180910390fd5b80915050919050565b6000600a54905090565b60008073ffffffffffffffffffffffffffffffffffffffff168273ffffffffffffffffffffffffffffffffffffffff1603610d27576040517f08c379a0000000000000000000000000000000000000000000000000000000008152600401610d1e9061383c565b60405180910390fd5b600360008373ffffffffffffffffffffffffffffffffffffffff1673ffffffffffffffffffffffffffffffffffffffff168152602001908152602001600020549050919050565b6000610d7a6007611e1c565b6000610d866007611dd1565b9050610d923382611e32565b610d9c8185611e50565b610da68184611ef4565b8091505092915050565b3373ffffffffffffffffffffffffffffffffffffffff16600b600083815260200190815260200160002060030160009054906101000a900473ffffffffffffffffffffffffffffffffffffffff1673ffffffffffffffffffffffffffffffffffffffff1614610e54576040517f08c379a0000000000000000000000000000000000000000000000000000000008152600401610e4b906138ce565b60405180910390fd5b6001600b600083815260200190815260200160002060050160006101000a81548160ff02191690831515021790555050565b610e8e612b7a565b600b60008381526020019081526020016000206040518060c001604052908160008201548152602001600182015481526020016002820160009054906101000a900473ffffffffffffffffffffffffffffffffffffffff1673ffffffffffffffffffffffffffffffffffffffff1673ffffffffffffffffffffffffffffffffffffffff1681526020016003820160009054906101000a900473ffffffffffffffffffffffffffffffffffffffff1673ffffffffffffffffffffffffffffffffffffffff1673ffffffffffffffffffffffffffffffffffffffff168152602001600482015481526020016005820160009054906101000a900460ff1615151515815250509050919050565b606060018054610fa7906134e5565b80601f0160208091040260200160405190810160405280929190818152602001828054610fd3906134e5565b80156110205780601f10610ff557610100808354040283529160200191611020565b820191906000526020600020905b81548152906001019060200180831161100357829003601f168201915b5050505050905090565b6000600b60008381526020019081526020016000206004015490506000600b600084815260200190815260200160002060030160009054906101000a900473ffffffffffffffffffffffffffffffffffffffff169050813410156110c3576040517f08c379a00000000000000000000000000000000000000000000000000000000081526004016110ba90613960565b60405180910390fd5b6000600b600085815260200190815260200160002060050160006101000a81548160ff02191690831515021790555033600b600085815260200190815260200160002060030160006101000a81548173ffffffffffffffffffffffffffffffffffffffff021916908373ffffffffffffffffffffffffffffffffffffffff1602179055506001600b6000858152602001908152602001600020600101600082825461116e91906136fb565b92505081905550600c600084815260200190815260200160002060405180604001604052803373ffffffffffffffffffffffffffffffffffffffff16815260200184815250908060018154018082558091505060019003906000526020600020906002020160009091909190915060008201518160000160006101000a81548173ffffffffffffffffffffffffffffffffffffffff021916908373ffffffffffffffffffffffffffffffffffffffff1602179055506020820151816001015550506112396008611e1c565b611244303385611ad8565b61124e30846106b4565b8073ffffffffffffffffffffffffffffffffffffffff166108fc349081150290604051600060405180830381858888f19350505050158015611294573d6000803e3d6000fd5b50505050565b6112ac6112a5611982565b8383612239565b5050565b6112c16112bb611982565b83611a43565b611300576040517f08c379a00000000000000000000000000000000000000000000000000000000081526004016112f7906136ac565b60405180910390fd5b61130c848484846123a5565b50505050565b3373ffffffffffffffffffffffffffffffffffffffff16600960009054906101000a900473ffffffffffffffffffffffffffffffffffffffff1673ffffffffffffffffffffffffffffffffffffffff16146113a2576040517f08c379a0000000000000000000000000000000000000000000000000000000008152600401611399906139f2565b60405180910390fd5b80600a8190555050565b60606113b782611937565b60006006600084815260200190815260200160002080546113d7906134e5565b80601f0160208091040260200160405190810160405280929190818152602001828054611403906134e5565b80156114505780601f1061142557610100808354040283529160200191611450565b820191906000526020600020905b81548152906001019060200180831161143357829003601f168201915b505050505090506000611461612401565b905060008151036114765781925050506114b9565b6000825111156114ab578082604051602001611493929190613a4e565b604051602081830303815290604052925050506114b9565b6114b484612418565b925050505b919050565b6114c6612b7a565b60006114d26007611dd1565b9050600b60008281526020019081526020016000206040518060c001604052908160008201548152602001600182015481526020016002820160009054906101000a900473ffffffffffffffffffffffffffffffffffffffff1673ffffffffffffffffffffffffffffffffffffffff1673ffffffffffffffffffffffffffffffffffffffff1681526020016003820160009054906101000a900473ffffffffffffffffffffffffffffffffffffffff1673ffffffffffffffffffffffffffffffffffffffff1673ffffffffffffffffffffffffffffffffffffffff168152602001600482015481526020016005820160009054906101000a900460ff16151515158152505091505090565b606060006115eb6007611dd1565b905060008167ffffffffffffffff811115611609576116086130c9565b5b60405190808252806020026020018201604052801561164257816020015b61162f612b7a565b8152602001906001900390816116275790505b5090506000805b838110156117a657600060018261166091906136fb565b90506000600b60008381526020019081526020016000209050806040518060c001604052908160008201548152602001600182015481526020016002820160009054906101000a900473ffffffffffffffffffffffffffffffffffffffff1673ffffffffffffffffffffffffffffffffffffffff1673ffffffffffffffffffffffffffffffffffffffff1681526020016003820160009054906101000a900473ffffffffffffffffffffffffffffffffffffffff1673ffffffffffffffffffffffffffffffffffffffff1673ffffffffffffffffffffffffffffffffffffffff168152602001600482015481526020016005820160009054906101000a900460ff16151515158152505085858151811061177d5761177c61372f565b5b602002602001018190525060018461179591906136fb565b935050508080600101915050611649565b5081935050505090565b6000600560008473ffffffffffffffffffffffffffffffffffffffff1673ffffffffffffffffffffffffffffffffffffffff16815260200190815260200160002060008373ffffffffffffffffffffffffffffffffffffffff1673ffffffffffffffffffffffffffffffffffffffff16815260200190815260200160002060009054906101000a900460ff16905092915050565b60006118506007611dd1565b905090565b60007f80ac58cd000000000000000000000000000000000000000000000000000000007bffffffffffffffffffffffffffffffffffffffffffffffffffffffff1916827bffffffffffffffffffffffffffffffffffffffffffffffffffffffff1916148061192057507f5b5e139f000000000000000000000000000000000000000000000000000000007bffffffffffffffffffffffffffffffffffffffffffffffffffffffff1916827bffffffffffffffffffffffffffffffffffffffffffffffffffffffff1916145b80611930575061192f82612480565b5b9050919050565b611940816124ea565b61197f576040517f08c379a0000000000000000000000000000000000000000000000000000000008152600401611976906137aa565b60405180910390fd5b50565b600033905090565b816004600083815260200190815260200160002060006101000a81548173ffffffffffffffffffffffffffffffffffffffff021916908373ffffffffffffffffffffffffffffffffffffffff160217905550808273ffffffffffffffffffffffffffffffffffffffff166119fd83610c27565b73ffffffffffffffffffffffffffffffffffffffff167f8c5be1e5ebec7d5bd14f71427d1e84f3dd0314c0f7b2291e5b200ac8c7c3b92560405160405180910390a45050565b600080611a4f83610c27565b90508073ffffffffffffffffffffffffffffffffffffffff168473ffffffffffffffffffffffffffffffffffffffff161480611a915750611a9081856117b0565b5b80611acf57508373ffffffffffffffffffffffffffffffffffffffff16611ab78461066e565b73ffffffffffffffffffffffffffffffffffffffff16145b91505092915050565b8273ffffffffffffffffffffffffffffffffffffffff16611af882610c27565b73ffffffffffffffffffffffffffffffffffffffff1614611b4e576040517f08c379a0000000000000000000000000000000000000000000000000000000008152600401611b4590613ae4565b60405180910390fd5b600073ffffffffffffffffffffffffffffffffffffffff168273ffffffffffffffffffffffffffffffffffffffff1603611bbd576040517f08c379a0000000000000000000000000000000000000000000000000000000008152600401611bb490613b76565b60405180910390fd5b611bca838383600161252b565b8273ffffffffffffffffffffffffffffffffffffffff16611bea82610c27565b73ffffffffffffffffffffffffffffffffffffffff1614611c40576040517f08c379a0000000000000000000000000000000000000000000000000000000008152600401611c3790613ae4565b60405180910390fd5b6004600082815260200190815260200160002060006101000a81549073ffffffffffffffffffffffffffffffffffffffff02191690556001600360008573ffffffffffffffffffffffffffffffffffffffff1673ffffffffffffffffffffffffffffffffffffffff168152602001908152602001600020600082825403925050819055506001600360008473ffffffffffffffffffffffffffffffffffffffff1673ffffffffffffffffffffffffffffffffffffffff16815260200190815260200160002060008282540192505081905550816002600083815260200190815260200160002060006101000a81548173ffffffffffffffffffffffffffffffffffffffff021916908373ffffffffffffffffffffffffffffffffffffffff160217905550808273ffffffffffffffffffffffffffffffffffffffff168473ffffffffffffffffffffffffffffffffffffffff167fddf252ad1be2c89b69c2b068fc378daa952ba7f163c4a11628f55a4df523b3ef60405160405180910390a4611dcc8383836001612531565b505050565b600081600001549050919050565b60006002600083815260200190815260200160002060009054906101000a900473ffffffffffffffffffffffffffffffffffffffff169050919050565b6001816000016000828254019250508190555050565b611e4c828260405180602001604052806000815250612537565b5050565b611e59826124ea565b611e98576040517f08c379a0000000000000000000000000000000000000000000000000000000008152600401611e8f90613c08565b60405180910390fd5b80600660008481526020019081526020016000209081611eb89190613dd4565b507ff8e1a15aba9398e019f0b49df1a4fde98ee17ae345cb5f6b5e2c27f5033e8ce782604051611ee89190613077565b60405180910390a15050565b60008111611f37576040517f08c379a0000000000000000000000000000000000000000000000000000000008152600401611f2e90613f18565b60405180910390fd5b600c600083815260200190815260200160002060405180604001604052803073ffffffffffffffffffffffffffffffffffffffff1681526020016000815250908060018154018082558091505060019003906000526020600020906002020160009091909190915060008201518160000160006101000a81548173ffffffffffffffffffffffffffffffffffffffff021916908373ffffffffffffffffffffffffffffffffffffffff160217905550602082015181600101555050600c600083815260200190815260200160002060405180604001604052803373ffffffffffffffffffffffffffffffffffffffff16815260200183815250908060018154018082558091505060019003906000526020600020906002020160009091909190915060008201518160000160006101000a81548173ffffffffffffffffffffffffffffffffffffffff021916908373ffffffffffffffffffffffffffffffffffffffff1602179055506020820151816001015550506040518060c00160405280838152602001600281526020013073ffffffffffffffffffffffffffffffffffffffff1681526020013373ffffffffffffffffffffffffffffffffffffffff16815260200182815260200160011515815250600b6000848152602001908152602001600020600082015181600001556020820151816001015560408201518160020160006101000a81548173ffffffffffffffffffffffffffffffffffffffff021916908373ffffffffffffffffffffffffffffffffffffffff16021790555060608201518160030160006101000a81548173ffffffffffffffffffffffffffffffffffffffff021916908373ffffffffffffffffffffffffffffffffffffffff1602179055506080820151816004015560a08201518160050160006101000a81548160ff0219169083151502179055509050506121f6333084611ad8565b817f9339409317fd01fabff48b703019016f49159bacc801ae872d2ca637d226e4c0303384600060405161222d9493929190613f38565b60405180910390a25050565b8173ffffffffffffffffffffffffffffffffffffffff168373ffffffffffffffffffffffffffffffffffffffff16036122a7576040517f08c379a000000000000000000000000000000000000000000000000000000000815260040161229e90613fc9565b60405180910390fd5b80600560008573ffffffffffffffffffffffffffffffffffffffff1673ffffffffffffffffffffffffffffffffffffffff16815260200190815260200160002060008473ffffffffffffffffffffffffffffffffffffffff1673ffffffffffffffffffffffffffffffffffffffff16815260200190815260200160002060006101000a81548160ff0219169083151502179055508173ffffffffffffffffffffffffffffffffffffffff168373ffffffffffffffffffffffffffffffffffffffff167f17307eab39ab6107e8899845ad3d59bd9653f200f220920489ca2b5937696c31836040516123989190612c92565b60405180910390a3505050565b6123b0848484611ad8565b6123bc84848484612592565b6123fb576040517f08c379a00000000000000000000000000000000000000000000000000000000081526004016123f29061405b565b60405180910390fd5b50505050565b606060405180602001604052806000815250905090565b606061242382611937565b600061242d612401565b9050600081511161244d5760405180602001604052806000815250612478565b8061245784612719565b604051602001612468929190613a4e565b6040516020818303038152906040525b915050919050565b60007f01ffc9a7000000000000000000000000000000000000000000000000000000007bffffffffffffffffffffffffffffffffffffffffffffffffffffffff1916827bffffffffffffffffffffffffffffffffffffffffffffffffffffffff1916149050919050565b60008073ffffffffffffffffffffffffffffffffffffffff1661250c83611ddf565b73ffffffffffffffffffffffffffffffffffffffff1614159050919050565b50505050565b50505050565b61254183836127e7565b61254e6000848484612592565b61258d576040517f08c379a00000000000000000000000000000000000000000000000000000000081526004016125849061405b565b60405180910390fd5b505050565b60006125b38473ffffffffffffffffffffffffffffffffffffffff16612a04565b1561270c578373ffffffffffffffffffffffffffffffffffffffff1663150b7a026125dc611982565b8786866040518563ffffffff1660e01b81526004016125fe94939291906140d0565b6020604051808303816000875af192505050801561263a57506040513d601f19601f820116820180604052508101906126379190614131565b60015b6126bc573d806000811461266a576040519150601f19603f3d011682016040523d82523d6000602084013e61266f565b606091505b5060008151036126b4576040517f08c379a00000000000000000000000000000000000000000000000000000000081526004016126ab9061405b565b60405180910390fd5b805181602001fd5b63150b7a0260e01b7bffffffffffffffffffffffffffffffffffffffffffffffffffffffff1916817bffffffffffffffffffffffffffffffffffffffffffffffffffffffff191614915050612711565b600190505b949350505050565b60606000600161272884612a27565b01905060008167ffffffffffffffff811115612747576127466130c9565b5b6040519080825280601f01601f1916602001820160405280156127795781602001600182028036833780820191505090505b509050600082602001820190505b6001156127dc578080600190039150507f3031323334353637383961626364656600000000000000000000000000000000600a86061a8153600a85816127d0576127cf61415e565b5b04945060008503612787575b819350505050919050565b600073ffffffffffffffffffffffffffffffffffffffff168273ffffffffffffffffffffffffffffffffffffffff1603612856576040517f08c379a000000000000000000000000000000000000000000000000000000000815260040161284d906141d9565b60405180910390fd5b61285f816124ea565b1561289f576040517f08c379a000000000000000000000000000000000000000000000000000000000815260040161289690614245565b60405180910390fd5b6128ad60008383600161252b565b6128b6816124ea565b156128f6576040517f08c379a00000000000000000000000000000000000000000000000000000000081526004016128ed90614245565b60405180910390fd5b6001600360008473ffffffffffffffffffffffffffffffffffffffff1673ffffffffffffffffffffffffffffffffffffffff16815260200190815260200160002060008282540192505081905550816002600083815260200190815260200160002060006101000a81548173ffffffffffffffffffffffffffffffffffffffff021916908373ffffffffffffffffffffffffffffffffffffffff160217905550808273ffffffffffffffffffffffffffffffffffffffff16600073ffffffffffffffffffffffffffffffffffffffff167fddf252ad1be2c89b69c2b068fc378daa952ba7f163c4a11628f55a4df523b3ef60405160405180910390a4612a00600083836001612531565b5050565b6000808273ffffffffffffffffffffffffffffffffffffffff163b119050919050565b600080600090507a184f03e93ff9f4daa797ed6e38ed64bf6a1f0100000000000000008310612a85577a184f03e93ff9f4daa797ed6e38ed64bf6a1f0100000000000000008381612a7b57612a7a61415e565b5b0492506040810190505b6d04ee2d6d415b85acef81000000008310612ac2576d04ee2d6d415b85acef81000000008381612ab857612ab761415e565b5b0492506020810190505b662386f26fc100008310612af157662386f26fc100008381612ae757612ae661415e565b5b0492506010810190505b6305f5e1008310612b1a576305f5e1008381612b1057612b0f61415e565b5b0492506008810190505b6127108310612b3f576127108381612b3557612b3461415e565b5b0492506004810190505b60648310612b625760648381612b5857612b5761415e565b5b0492506002810190505b600a8310612b71576001810190505b80915050919050565b6040518060c001604052806000815260200160008152602001600073ffffffffffffffffffffffffffffffffffffffff168152602001600073ffffffffffffffffffffffffffffffffffffffff168152602001600081526020016000151581525090565b6000604051905090565b600080fd5b600080fd5b60007fffffffff0000000000000000000000000000000000000000000000000000000082169050919050565b612c2781612bf2565b8114612c3257600080fd5b50565b600081359050612c4481612c1e565b92915050565b600060208284031215612c6057612c5f612be8565b5b6000612c6e84828501612c35565b91505092915050565b60008115159050919050565b612c8c81612c77565b82525050565b6000602082019050612ca76000830184612c83565b92915050565b600081519050919050565b600082825260208201905092915050565b60005b83811015612ce7578082015181840152602081019050612ccc565b60008484015250505050565b6000601f19601f8301169050919050565b6000612d0f82612cad565b612d198185612cb8565b9350612d29818560208601612cc9565b612d3281612cf3565b840191505092915050565b60006020820190508181036000830152612d578184612d04565b905092915050565b6000819050919050565b612d7281612d5f565b8114612d7d57600080fd5b50565b600081359050612d8f81612d69565b92915050565b600060208284031215612dab57612daa612be8565b5b6000612db984828501612d80565b91505092915050565b600073ffffffffffffffffffffffffffffffffffffffff82169050919050565b6000612ded82612dc2565b9050919050565b612dfd81612de2565b82525050565b6000602082019050612e186000830184612df4565b92915050565b612e2781612de2565b8114612e3257600080fd5b50565b600081359050612e4481612e1e565b92915050565b60008060408385031215612e6157612e60612be8565b5b6000612e6f85828601612e35565b9250506020612e8085828601612d80565b9150509250929050565b600080600060608486031215612ea357612ea2612be8565b5b6000612eb186828701612e35565b9350506020612ec286828701612e35565b9250506040612ed386828701612d80565b9150509250925092565b600081519050919050565b600082825260208201905092915050565b6000819050602082019050919050565b612f1281612d5f565b82525050565b6000612f2382612dc2565b9050919050565b612f3381612f18565b82525050565b612f4281612c77565b82525050565b60c082016000820151612f5e6000850182612f09565b506020820151612f716020850182612f09565b506040820151612f846040850182612f2a565b506060820151612f976060850182612f2a565b506080820151612faa6080850182612f09565b5060a0820151612fbd60a0850182612f39565b50505050565b6000612fcf8383612f48565b60c08301905092915050565b6000602082019050919050565b6000612ff382612edd565b612ffd8185612ee8565b935061300883612ef9565b8060005b838110156130395781516130208882612fc3565b975061302b83612fdb565b92505060018101905061300c565b5085935050505092915050565b600060208201905081810360008301526130608184612fe8565b905092915050565b61307181612d5f565b82525050565b600060208201905061308c6000830184613068565b92915050565b6000602082840312156130a8576130a7612be8565b5b60006130b684828501612e35565b91505092915050565b600080fd5b600080fd5b7f4e487b7100000000000000000000000000000000000000000000000000000000600052604160045260246000fd5b61310182612cf3565b810181811067ffffffffffffffff821117156131205761311f6130c9565b5b80604052505050565b6000613133612bde565b905061313f82826130f8565b919050565b600067ffffffffffffffff82111561315f5761315e6130c9565b5b61316882612cf3565b9050602081019050919050565b82818337600083830152505050565b600061319761319284613144565b613129565b9050828152602081018484840111156131b3576131b26130c4565b5b6131be848285613175565b509392505050565b600082601f8301126131db576131da6130bf565b5b81356131eb848260208601613184565b91505092915050565b6000806040838503121561320b5761320a612be8565b5b600083013567ffffffffffffffff81111561322957613228612bed565b5b613235858286016131c6565b925050602061324685828601612d80565b9150509250929050565b60c0820160008201516132666000850182612f09565b5060208201516132796020850182612f09565b50604082015161328c6040850182612f2a565b50606082015161329f6060850182612f2a565b5060808201516132b26080850182612f09565b5060a08201516132c560a0850182612f39565b50505050565b600060c0820190506132e06000830184613250565b92915050565b6132ef81612c77565b81146132fa57600080fd5b50565b60008135905061330c816132e6565b92915050565b6000806040838503121561332957613328612be8565b5b600061333785828601612e35565b9250506020613348858286016132fd565b9150509250929050565b600067ffffffffffffffff82111561336d5761336c6130c9565b5b61337682612cf3565b9050602081019050919050565b600061339661339184613352565b613129565b9050828152602081018484840111156133b2576133b16130c4565b5b6133bd848285613175565b509392505050565b600082601f8301126133da576133d96130bf565b5b81356133ea848260208601613383565b91505092915050565b6000806000806080858703121561340d5761340c612be8565b5b600061341b87828801612e35565b945050602061342c87828801612e35565b935050604061343d87828801612d80565b925050606085013567ffffffffffffffff81111561345e5761345d612bed565b5b61346a878288016133c5565b91505092959194509250565b6000806040838503121561348d5761348c612be8565b5b600061349b85828601612e35565b92505060206134ac85828601612e35565b9150509250929050565b7f4e487b7100000000000000000000000000000000000000000000000000000000600052602260045260246000fd5b600060028204905060018216806134fd57607f821691505b6020821081036135105761350f6134b6565b5b50919050565b7f4552433732313a20617070726f76616c20746f2063757272656e74206f776e6560008201527f7200000000000000000000000000000000000000000000000000000000000000602082015250565b6000613572602183612cb8565b915061357d82613516565b604082019050919050565b600060208201905081810360008301526135a181613565565b9050919050565b7f4552433732313a20617070726f76652063616c6c6572206973206e6f7420746f60008201527f6b656e206f776e6572206f7220617070726f76656420666f7220616c6c000000602082015250565b6000613604603d83612cb8565b915061360f826135a8565b604082019050919050565b60006020820190508181036000830152613633816135f7565b9050919050565b7f4552433732313a2063616c6c6572206973206e6f7420746f6b656e206f776e6560008201527f72206f7220617070726f76656400000000000000000000000000000000000000602082015250565b6000613696602d83612cb8565b91506136a18261363a565b604082019050919050565b600060208201905081810360008301526136c581613689565b9050919050565b7f4e487b7100000000000000000000000000000000000000000000000000000000600052601160045260246000fd5b600061370682612d5f565b915061371183612d5f565b9250828201905080821115613729576137286136cc565b5b92915050565b7f4e487b7100000000000000000000000000000000000000000000000000000000600052603260045260246000fd5b7f4552433732313a20696e76616c696420746f6b656e2049440000000000000000600082015250565b6000613794601883612cb8565b915061379f8261375e565b602082019050919050565b600060208201905081810360008301526137c381613787565b9050919050565b7f4552433732313a2061646472657373207a65726f206973206e6f74206120766160008201527f6c6964206f776e65720000000000000000000000000000000000000000000000602082015250565b6000613826602983612cb8565b9150613831826137ca565b604082019050919050565b6000602082019050818103600083015261385581613819565b9050919050565b7f4f6e6c792043757272656e74206f776e65722063616e206c697374206974656d60008201527f20666f722073616c650000000000000000000000000000000000000000000000602082015250565b60006138b8602983612cb8565b91506138c38261385c565b604082019050919050565b600060208201905081810360008301526138e7816138ab565b9050919050565b7f506c65617365207375626d6974207468652061736b696e67207072696365206960008201527f6e206f7264657220746f20636f6d706c65746520746865207075726368617365602082015250565b600061394a604083612cb8565b9150613955826138ee565b604082019050919050565b600060208201905081810360008301526139798161393d565b9050919050565b7f4f6e6c79206f776e65722063616e20757064617465206c697374696e6720707260008201527f6963650000000000000000000000000000000000000000000000000000000000602082015250565b60006139dc602383612cb8565b91506139e782613980565b604082019050919050565b60006020820190508181036000830152613a0b816139cf565b9050919050565b600081905092915050565b6000613a2882612cad565b613a328185613a12565b9350613a42818560208601612cc9565b80840191505092915050565b6000613a5a8285613a1d565b9150613a668284613a1d565b91508190509392505050565b7f4552433732313a207472616e736665722066726f6d20696e636f72726563742060008201527f6f776e6572000000000000000000000000000000000000000000000000000000602082015250565b6000613ace602583612cb8565b9150613ad982613a72565b604082019050919050565b60006020820190508181036000830152613afd81613ac1565b9050919050565b7f4552433732313a207472616e7366657220746f20746865207a65726f2061646460008201527f7265737300000000000000000000000000000000000000000000000000000000602082015250565b6000613b60602483612cb8565b9150613b6b82613b04565b604082019050919050565b60006020820190508181036000830152613b8f81613b53565b9050919050565b7f45524337323155524953746f726167653a2055524920736574206f66206e6f6e60008201527f6578697374656e7420746f6b656e000000000000000000000000000000000000602082015250565b6000613bf2602e83612cb8565b9150613bfd82613b96565b604082019050919050565b60006020820190508181036000830152613c2181613be5565b9050919050565b60008190508160005260206000209050919050565b60006020601f8301049050919050565b600082821b905092915050565b600060088302613c8a7fffffffffffffffffffffffffffffffffffffffffffffffffffffffffffffffff82613c4d565b613c948683613c4d565b95508019841693508086168417925050509392505050565b6000819050919050565b6000613cd1613ccc613cc784612d5f565b613cac565b612d5f565b9050919050565b6000819050919050565b613ceb83613cb6565b613cff613cf782613cd8565b848454613c5a565b825550505050565b600090565b613d14613d07565b613d1f818484613ce2565b505050565b5b81811015613d4357613d38600082613d0c565b600181019050613d25565b5050565b601f821115613d8857613d5981613c28565b613d6284613c3d565b81016020851015613d71578190505b613d85613d7d85613c3d565b830182613d24565b50505b505050565b600082821c905092915050565b6000613dab60001984600802613d8d565b1980831691505092915050565b6000613dc48383613d9a565b9150826002028217905092915050565b613ddd82612cad565b67ffffffffffffffff811115613df657613df56130c9565b5b613e0082546134e5565b613e0b828285613d47565b600060209050601f831160018114613e3e5760008415613e2c578287015190505b613e368582613db8565b865550613e9e565b601f198416613e4c86613c28565b60005b82811015613e7457848901518255600182019150602085019450602081019050613e4f565b86831015613e915784890151613e8d601f891682613d9a565b8355505b6001600288020188555050505b505050505050565b7f4d616b652073757265207468652070726963652069736e2774206e656761746960008201527f7665000000000000000000000000000000000000000000000000000000000000602082015250565b6000613f02602283612cb8565b9150613f0d82613ea6565b604082019050919050565b60006020820190508181036000830152613f3181613ef5565b9050919050565b6000608082019050613f4d6000830187612df4565b613f5a6020830186612df4565b613f676040830185613068565b613f746060830184612c83565b95945050505050565b7f4552433732313a20617070726f766520746f2063616c6c657200000000000000600082015250565b6000613fb3601983612cb8565b9150613fbe82613f7d565b602082019050919050565b60006020820190508181036000830152613fe281613fa6565b9050919050565b7f4552433732313a207472616e7366657220746f206e6f6e20455243373231526560008201527f63656976657220696d706c656d656e7465720000000000000000000000000000602082015250565b6000614045603283612cb8565b915061405082613fe9565b604082019050919050565b6000602082019050818103600083015261407481614038565b9050919050565b600081519050919050565b600082825260208201905092915050565b60006140a28261407b565b6140ac8185614086565b93506140bc818560208601612cc9565b6140c581612cf3565b840191505092915050565b60006080820190506140e56000830187612df4565b6140f26020830186612df4565b6140ff6040830185613068565b81810360608301526141118184614097565b905095945050505050565b60008151905061412b81612c1e565b92915050565b60006020828403121561414757614146612be8565b5b60006141558482850161411c565b91505092915050565b7f4e487b7100000000000000000000000000000000000000000000000000000000600052601260045260246000fd5b7f4552433732313a206d696e7420746f20746865207a65726f2061646472657373600082015250565b60006141c3602083612cb8565b91506141ce8261418d565b602082019050919050565b600060208201905081810360008301526141f2816141b6565b9050919050565b7f4552433732313a20746f6b656e20616c7265616479206d696e74656400000000600082015250565b600061422f601c83612cb8565b915061423a826141f9565b602082019050919050565b6000602082019050818103600083015261425e81614222565b905091905056fea264697066735822122068b9e22a7aef220acceb30ff93688462d3475417a46e700d36f726aa718655d964736f6c63430008180033",
  "linkReferences": {},
  "deployedLinkReferences": {}
}