{
  "_format": "hh-sol-artifact-1",
  "contractName": "Paripp",
  "sourceName": "contracts/Paripp.sol",
  "abi": [
    {
      "inputs": [],
      "stateMutability": "nonpayable",
      "type": "constructor"
    },
    {
      "anonymous": false,
      "inputs": [
        {
          "indexed": true,
          "internalType": "address",
          "name": "owner",
          "type": "address"
        },
        {
          "indexed": true,
          "internalType": "address",
          "name": "approved",
          "type": "address"
        },
        {
          "indexed": true,
          "internalType": "uint256",
          "name": "tokenId",
          "type": "uint256"
        }
      ],
      "name": "Approval",
      "type": "event"
    },
    {
      "anonymous": false,
      "inputs": [
        {
          "indexed": true,
          "internalType": "address",
          "name": "owner",
          "type": "address"
        },
        {
          "indexed": true,
          "internalType": "address",
          "name": "operator",
          "type": "address"
        },
        {
          "indexed": false,
          "internalType": "bool",
          "name": "approved",
          "type": "bool"
        }
      ],
      "name": "ApprovalForAll",
      "type": "event"
    },
    {
      "anonymous": false,
      "inputs": [
        {
          "indexed": false,
          "internalType": "uint256",
          "name": "_fromTokenId",
          "type": "uint256"
        },
        {
          "indexed": false,
          "internalType": "uint256",
          "name": "_toTokenId",
          "type": "uint256"
        }
      ],
      "name": "BatchMetadataUpdate",
      "type": "event"
    },
    {
      "anonymous": false,
      "inputs": [
        {
          "indexed": false,
          "internalType": "uint256",
          "name": "_tokenId",
          "type": "uint256"
        }
      ],
      "name": "MetadataUpdate",
      "type": "event"
    },
    {
      "anonymous": false,
      "inputs": [
        {
          "indexed": true,
          "internalType": "uint256",
          "name": "tokenId",
          "type": "uint256"
        },
        {
          "indexed": false,
          "internalType": "address",
          "name": "owner",
          "type": "address"
        },
        {
          "indexed": false,
          "internalType": "address",
          "name": "seller",
          "type": "address"
        },
        {
          "indexed": false,
          "internalType": "uint256",
          "name": "price",
          "type": "uint256"
        },
        {
          "indexed": false,
          "internalType": "bool",
          "name": "currentlyListed",
          "type": "bool"
        }
      ],
      "name": "TokenListedSuccess",
      "type": "event"
    },
    {
      "anonymous": false,
      "inputs": [
        {
          "indexed": true,
          "internalType": "address",
          "name": "from",
          "type": "address"
        },
        {
          "indexed": true,
          "internalType": "address",
          "name": "to",
          "type": "address"
        },
        {
          "indexed": true,
          "internalType": "uint256",
          "name": "tokenId",
          "type": "uint256"
        }
      ],
      "name": "Transfer",
      "type": "event"
    },
    {
      "inputs": [
        {
          "internalType": "uint256",
          "name": "tokenId",
          "type": "uint256"
        }
      ],
      "name": "ListItem",
      "outputs": [],
      "stateMutability": "nonpayable",
      "type": "function"
    },
    {
      "inputs": [
        {
          "internalType": "address",
          "name": "to",
          "type": "address"
        },
        {
          "internalType": "uint256",
          "name": "tokenId",
          "type": "uint256"
        }
      ],
      "name": "approve",
      "outputs": [],
      "stateMutability": "nonpayable",
      "type": "function"
    },
    {
      "inputs": [
        {
          "internalType": "address",
          "name": "owner",
          "type": "address"
        }
      ],
      "name": "balanceOf",
      "outputs": [
        {
          "internalType": "uint256",
          "name": "",
          "type": "uint256"
        }
      ],
      "stateMutability": "view",
      "type": "function"
    },
    {
      "inputs": [
        {
          "internalType": "string",
          "name": "tokenURI",
          "type": "string"
        },
        {
          "internalType": "uint256",
          "name": "price",
          "type": "uint256"
        }
      ],
      "name": "createToken",
      "outputs": [
        {
          "internalType": "uint256",
          "name": "",
          "type": "uint256"
        }
      ],
      "stateMutability": "payable",
      "type": "function"
    },
    {
      "inputs": [
        {
          "internalType": "uint256",
          "name": "tokenId",
          "type": "uint256"
        }
      ],
      "name": "executeSale",
      "outputs": [],
      "stateMutability": "payable",
      "type": "function"
    },
    {
      "inputs": [],
      "name": "getAllNFTs",
      "outputs": [
        {
          "components": [
            {
              "internalType": "uint256",
              "name": "tokenId",
              "type": "uint256"
            },
            {
              "internalType": "uint256",
              "name": "totalHistory",
              "type": "uint256"
            },
            {
              "internalType": "address payable",
              "name": "owner",
              "type": "address"
            },
            {
              "internalType": "address payable",
              "name": "seller",
              "type": "address"
            },
            {
              "internalType": "uint256",
              "name": "price",
              "type": "uint256"
            },
            {
              "internalType": "bool",
              "name": "currentlyListed",
              "type": "bool"
            }
          ],
          "internalType": "struct Paripp.ListedToken[]",
          "name": "",
          "type": "tuple[]"
        }
      ],
      "stateMutability": "view",
      "type": "function"
    },
    {
      "inputs": [
        {
          "internalType": "uint256",
          "name": "tokenId",
          "type": "uint256"
        }
      ],
      "name": "getApproved",
      "outputs": [
        {
          "internalType": "address",
          "name": "",
          "type": "address"
        }
      ],
      "stateMutability": "view",
      "type": "function"
    },
    {
      "inputs": [],
      "name": "getCurrentToken",
      "outputs": [
        {
          "internalType": "uint256",
          "name": "",
          "type": "uint256"
        }
      ],
      "stateMutability": "view",
      "type": "function"
    },
    {
      "inputs": [
        {
          "internalType": "uint256",
          "name": "id",
          "type": "uint256"
        }
      ],
      "name": "getHistoryById",
      "outputs": [
        {
          "components": [
            {
              "internalType": "address",
              "name": "addr",
              "type": "address"
            },
            {
              "internalType": "uint256",
              "name": "buy_price",
              "type": "uint256"
            }
          ],
          "internalType": "struct Paripp.HistoryStruct[]",
          "name": "",
          "type": "tuple[]"
        }
      ],
      "stateMutability": "view",
      "type": "function"
    },
    {
      "inputs": [],
      "name": "getLatestIdToListedToken",
      "outputs": [
        {
          "components": [
            {
              "internalType": "uint256",
              "name": "tokenId",
              "type": "uint256"
            },
            {
              "internalType": "uint256",
              "name": "totalHistory",
              "type": "uint256"
            },
            {
              "internalType": "address payable",
              "name": "owner",
              "type": "address"
            },
            {
              "internalType": "address payable",
              "name": "seller",
              "type": "address"
            },
            {
              "internalType": "uint256",
              "name": "price",
              "type": "uint256"
            },
            {
              "internalType": "bool",
              "name": "currentlyListed",
              "type": "bool"
            }
          ],
          "internalType": "struct Paripp.ListedToken",
          "name": "",
          "type": "tuple"
        }
      ],
      "stateMutability": "view",
      "type": "function"
    },
    {
      "inputs": [],
      "name": "getListPrice",
      "outputs": [
        {
          "internalType": "uint256",
          "name": "",
          "type": "uint256"
        }
      ],
      "stateMutability": "view",
      "type": "function"
    },
    {
      "inputs": [
        {
          "internalType": "uint256",
          "name": "tokenId",
          "type": "uint256"
        }
      ],
      "name": "getListedTokenForId",
      "outputs": [
        {
          "components": [
            {
              "internalType": "uint256",
              "name": "tokenId",
              "type": "uint256"
            },
            {
              "internalType": "uint256",
              "name": "totalHistory",
              "type": "uint256"
            },
            {
              "internalType": "address payable",
              "name": "owner",
              "type": "address"
            },
            {
              "internalType": "address payable",
              "name": "seller",
              "type": "address"
            },
            {
              "internalType": "uint256",
              "name": "price",
              "type": "uint256"
            },
            {
              "internalType": "bool",
              "name": "currentlyListed",
              "type": "bool"
            }
          ],
          "internalType": "struct Paripp.ListedToken",
          "name": "",
          "type": "tuple"
        }
      ],
      "stateMutability": "view",
      "type": "function"
    },
    {
      "inputs": [],
      "name": "getMyNFTs",
      "outputs": [
        {
          "components": [
            {
              "internalType": "uint256",
              "name": "tokenId",
              "type": "uint256"
            },
            {
              "internalType": "uint256",
              "name": "totalHistory",
              "type": "uint256"
            },
            {
              "internalType": "address payable",
              "name": "owner",
              "type": "address"
            },
            {
              "internalType": "address payable",
              "name": "seller",
              "type": "address"
            },
            {
              "internalType": "uint256",
              "name": "price",
              "type": "uint256"
            },
            {
              "internalType": "bool",
              "name": "currentlyListed",
              "type": "bool"
            }
          ],
          "internalType": "struct Paripp.ListedToken[]",
          "name": "",
          "type": "tuple[]"
        }
      ],
      "stateMutability": "view",
      "type": "function"
    },
    {
      "inputs": [
        {
          "internalType": "uint256",
          "name": "",
          "type": "uint256"
        },
        {
          "internalType": "uint256",
          "name": "",
          "type": "uint256"
        }
      ],
      "name": "idToHistory",
      "outputs": [
        {
          "internalType": "address",
          "name": "addr",
          "type": "address"
        },
        {
          "internalType": "uint256",
          "name": "buy_price",
          "type": "uint256"
        }
      ],
      "stateMutability": "view",
      "type": "function"
    },
    {
      "inputs": [
        {
          "internalType": "address",
          "name": "owner",
          "type": "address"
        },
        {
          "internalType": "address",
          "name": "operator",
          "type": "address"
        }
      ],
      "name": "isApprovedForAll",
      "outputs": [
        {
          "internalType": "bool",
          "name": "",
          "type": "bool"
        }
      ],
      "stateMutability": "view",
      "type": "function"
    },
    {
      "inputs": [],
      "name": "name",
      "outputs": [
        {
          "internalType": "string",
          "name": "",
          "type": "string"
        }
      ],
      "stateMutability": "view",
      "type": "function"
    },
    {
      "inputs": [
        {
          "internalType": "uint256",
          "name": "tokenId",
          "type": "uint256"
        }
      ],
      "name": "ownerOf",
      "outputs": [
        {
          "internalType": "address",
          "name": "",
          "type": "address"
        }
      ],
      "stateMutability": "view",
      "type": "function"
    },
    {
      "inputs": [
        {
          "internalType": "address",
          "name": "from",
          "type": "address"
        },
        {
          "internalType": "address",
          "name": "to",
          "type": "address"
        },
        {
          "internalType": "uint256",
          "name": "tokenId",
          "type": "uint256"
        }
      ],
      "name": "safeTransferFrom",
      "outputs": [],
      "stateMutability": "nonpayable",
      "type": "function"
    },
    {
      "inputs": [
        {
          "internalType": "address",
          "name": "from",
          "type": "address"
        },
        {
          "internalType": "address",
          "name": "to",
          "type": "address"
        },
        {
          "internalType": "uint256",
          "name": "tokenId",
          "type": "uint256"
        },
        {
          "internalType": "bytes",
          "name": "data",
          "type": "bytes"
        }
      ],
      "name": "safeTransferFrom",
      "outputs": [],
      "stateMutability": "nonpayable",
      "type": "function"
    },
    {
      "inputs": [
        {
          "internalType": "address",
          "name": "operator",
          "type": "address"
        },
        {
          "internalType": "bool",
          "name": "approved",
          "type": "bool"
        }
      ],
      "name": "setApprovalForAll",
      "outputs": [],
      "stateMutability": "nonpayable",
      "type": "function"
    },
    {
      "inputs": [
        {
          "internalType": "bytes4",
          "name": "interfaceId",
          "type": "bytes4"
        }
      ],
      "name": "supportsInterface",
      "outputs": [
        {
          "internalType": "bool",
          "name": "",
          "type": "bool"
        }
      ],
      "stateMutability": "view",
      "type": "function"
    },
    {
      "inputs": [],
      "name": "symbol",
      "outputs": [
        {
          "internalType": "string",
          "name": "",
          "type": "string"
        }
      ],
      "stateMutability": "view",
      "type": "function"
    },
    {
      "inputs": [
        {
          "internalType": "uint256",
          "name": "tokenId",
          "type": "uint256"
        }
      ],
      "name": "tokenURI",
      "outputs": [
        {
          "internalType": "string",
          "name": "",
          "type": "string"
        }
      ],
      "stateMutability": "view",
      "type": "function"
    },
    {
      "inputs": [
        {
          "internalType": "address",
          "name": "from",
          "type": "address"
        },
        {
          "internalType": "address",
          "name": "to",
          "type": "address"
        },
        {
          "internalType": "uint256",
          "name": "tokenId",
          "type": "uint256"
        }
      ],
      "name": "transferFrom",
      "outputs": [],
      "stateMutability": "nonpayable",
      "type": "function"
    },
    {
      "inputs": [
        {
          "internalType": "uint256",
          "name": "_listPrice",
          "type": "uint256"
        }
      ],
      "name": "updateListPrice",
      "outputs": [],
      "stateMutability": "payable",
      "type": "function"
    }
  ],
  "bytecode": "0x608060405267016345785d8a0000600a553480156200001d57600080fd5b506040518060400160405280600681526020017f50617269707000000000000000000000000000000000000000000000000000008152506040518060400160405280600381526020017f505250000000000000000000000000000000000000000000000000000000000081525081600090816200009b919062000523565b508060019081620000ad919062000523565b505050620000c33060016200010a60201b60201c565b33600960006101000a81548173ffffffffffffffffffffffffffffffffffffffff021916908373ffffffffffffffffffffffffffffffffffffffff160217905550620006c7565b6200012c6200011e6200013060201b60201c565b83836200013860201b60201c565b5050565b600033905090565b8173ffffffffffffffffffffffffffffffffffffffff168373ffffffffffffffffffffffffffffffffffffffff1603620001a9576040517f08c379a0000000000000000000000000000000000000000000000000000000008152600401620001a0906200066b565b60405180910390fd5b80600560008573ffffffffffffffffffffffffffffffffffffffff1673ffffffffffffffffffffffffffffffffffffffff16815260200190815260200160002060008473ffffffffffffffffffffffffffffffffffffffff1673ffffffffffffffffffffffffffffffffffffffff16815260200190815260200160002060006101000a81548160ff0219169083151502179055508173ffffffffffffffffffffffffffffffffffffffff168373ffffffffffffffffffffffffffffffffffffffff167f17307eab39ab6107e8899845ad3d59bd9653f200f220920489ca2b5937696c31836040516200029c9190620006aa565b60405180910390a3505050565b600081519050919050565b7f4e487b7100000000000000000000000000000000000000000000000000000000600052604160045260246000fd5b7f4e487b7100000000000000000000000000000000000000000000000000000000600052602260045260246000fd5b600060028204905060018216806200032b57607f821691505b602082108103620003415762000340620002e3565b5b50919050565b60008190508160005260206000209050919050565b60006020601f8301049050919050565b600082821b905092915050565b600060088302620003ab7fffffffffffffffffffffffffffffffffffffffffffffffffffffffffffffffff826200036c565b620003b786836200036c565b95508019841693508086168417925050509392505050565b6000819050919050565b6000819050919050565b600062000404620003fe620003f884620003cf565b620003d9565b620003cf565b9050919050565b6000819050919050565b6200042083620003e3565b620004386200042f826200040b565b84845462000379565b825550505050565b600090565b6200044f62000440565b6200045c81848462000415565b505050565b5b8181101562000484576200047860008262000445565b60018101905062000462565b5050565b601f821115620004d3576200049d8162000347565b620004a8846200035c565b81016020851015620004b8578190505b620004d0620004c7856200035c565b83018262000461565b50505b505050565b600082821c905092915050565b6000620004f860001984600802620004d8565b1980831691505092915050565b6000620005138383620004e5565b9150826002028217905092915050565b6200052e82620002a9565b67ffffffffffffffff8111156200054a5762000549620002b4565b5b62000556825462000312565b6200056382828562000488565b600060209050601f8311600181146200059b576000841562000586578287015190505b62000592858262000505565b86555062000602565b601f198416620005ab8662000347565b60005b82811015620005d557848901518255600182019150602085019450602081019050620005ae565b86831015620005f55784890151620005f1601f891682620004e5565b8355505b6001600288020188555050505b505050505050565b600082825260208201905092915050565b7f4552433732313a20617070726f766520746f2063616c6c657200000000000000600082015250565b6000620006536019836200060a565b915062000660826200061b565b602082019050919050565b60006020820190508181036000830152620006868162000644565b9050919050565b60008115159050919050565b620006a4816200068d565b82525050565b6000602082019050620006c1600083018462000699565b92915050565b6145e880620006d76000396000f3fe6080604052600436106101665760003560e01c8063842eb165116100d1578063c322579c1161008a578063da15dd7211610064578063da15dd721461054b578063e0391b0914610589578063e985e9c5146105b4578063ef2d1746146105f157610166565b8063c322579c146104c7578063c87b56dd146104e3578063d1a88ae51461052057610166565b8063842eb165146103c85780638e264590146103f157806395d89b411461042e5780639b1225c414610459578063a22cb46514610475578063b88d4fde1461049e57610166565b80635173dd53116101235780635173dd531461028b578063629cb2e4146102c85780636352211e146102f357806368f1945f1461033057806370a082311461035b57806372b3b6201461039857610166565b806301ffc9a71461016b57806306fdde03146101a8578063081812fc146101d3578063095ea7b31461021057806323b872dd1461023957806342842e0e14610262575b600080fd5b34801561017757600080fd5b50610192600480360381019061018d9190612e1f565b61061c565b60405161019f9190612e67565b60405180910390f35b3480156101b457600080fd5b506101bd61067d565b6040516101ca9190612f12565b60405180910390f35b3480156101df57600080fd5b506101fa60048036038101906101f59190612f6a565b61070f565b6040516102079190612fd8565b60405180910390f35b34801561021c57600080fd5b506102376004803603810190610232919061301f565b610755565b005b34801561024557600080fd5b50610260600480360381019061025b919061305f565b61086c565b005b34801561026e57600080fd5b506102896004803603810190610284919061305f565b6108cc565b005b34801561029757600080fd5b506102b260048036038101906102ad9190612f6a565b6108ec565b6040516102bf91906131ae565b60405180910390f35b3480156102d457600080fd5b506102dd6109be565b6040516102ea919061332a565b60405180910390f35b3480156102ff57600080fd5b5061031a60048036038101906103159190612f6a565b610d9a565b6040516103279190612fd8565b60405180910390f35b34801561033c57600080fd5b50610345610e20565b604051610352919061335b565b60405180910390f35b34801561036757600080fd5b50610382600480360381019061037d9190613376565b610e2a565b60405161038f919061335b565b60405180910390f35b6103b260048036038101906103ad91906134d8565b610ee1565b6040516103bf919061335b565b60405180910390f35b3480156103d457600080fd5b506103ef60048036038101906103ea9190612f6a565b610f23565b005b3480156103fd57600080fd5b5061041860048036038101906104139190612f6a565b611004565b60405161042591906135af565b60405180910390f35b34801561043a57600080fd5b50610443611116565b6040516104509190612f12565b60405180910390f35b610473600480360381019061046e9190612f6a565b6111a8565b005b34801561048157600080fd5b5061049c600480360381019061049791906135f6565b61140e565b005b3480156104aa57600080fd5b506104c560048036038101906104c091906136d7565b611424565b005b6104e160048036038101906104dc9190612f6a565b611486565b005b3480156104ef57600080fd5b5061050a60048036038101906105059190612f6a565b611520565b6040516105179190612f12565b60405180910390f35b34801561052c57600080fd5b50610535611632565b60405161054291906135af565b60405180910390f35b34801561055757600080fd5b50610572600480360381019061056d919061375a565b611751565b60405161058092919061379a565b60405180910390f35b34801561059557600080fd5b5061059e6117b2565b6040516105ab919061332a565b60405180910390f35b3480156105c057600080fd5b506105db60048036038101906105d691906137c3565b611985565b6040516105e89190612e67565b60405180910390f35b3480156105fd57600080fd5b50610606611a19565b604051610613919061335b565b60405180910390f35b6000634906490660e01b7bffffffffffffffffffffffffffffffffffffffffffffffffffffffff1916827bffffffffffffffffffffffffffffffffffffffffffffffffffffffff19161480610676575061067582611a2a565b5b9050919050565b60606000805461068c90613832565b80601f01602080910402602001604051908101604052809291908181526020018280546106b890613832565b80156107055780601f106106da57610100808354040283529160200191610705565b820191906000526020600020905b8154815290600101906020018083116106e857829003601f168201915b5050505050905090565b600061071a82611b0c565b6004600083815260200190815260200160002060009054906101000a900473ffffffffffffffffffffffffffffffffffffffff169050919050565b600061076082610d9a565b90508073ffffffffffffffffffffffffffffffffffffffff168373ffffffffffffffffffffffffffffffffffffffff16036107d0576040517f08c379a00000000000000000000000000000000000000000000000000000000081526004016107c7906138d5565b60405180910390fd5b8073ffffffffffffffffffffffffffffffffffffffff166107ef611b57565b73ffffffffffffffffffffffffffffffffffffffff16148061081e575061081d81610818611b57565b611985565b5b61085d576040517f08c379a000000000000000000000000000000000000000000000000000000000815260040161085490613967565b60405180910390fd5b6108678383611b5f565b505050565b61087d610877611b57565b82611c18565b6108bc576040517f08c379a00000000000000000000000000000000000000000000000000000000081526004016108b3906139f9565b60405180910390fd5b6108c7838383611cad565b505050565b6108e783838360405180602001604052806000815250611424565b505050565b6060600c6000838152602001908152602001600020805480602002602001604051908101604052809291908181526020016000905b828210156109b357838290600052602060002090600202016040518060400160405290816000820160009054906101000a900473ffffffffffffffffffffffffffffffffffffffff1673ffffffffffffffffffffffffffffffffffffffff1673ffffffffffffffffffffffffffffffffffffffff16815260200160018201548152505081526020019060010190610921565b505050509050919050565b606060006109cc6007611fa6565b905060008060005b83811015610ae7573373ffffffffffffffffffffffffffffffffffffffff16600b6000600184610a049190613a48565b815260200190815260200160002060020160009054906101000a900473ffffffffffffffffffffffffffffffffffffffff1673ffffffffffffffffffffffffffffffffffffffff161480610ac557503373ffffffffffffffffffffffffffffffffffffffff16600b6000600184610a7b9190613a48565b815260200190815260200160002060030160009054906101000a900473ffffffffffffffffffffffffffffffffffffffff1673ffffffffffffffffffffffffffffffffffffffff16145b15610ada57600183610ad79190613a48565b92505b80806001019150506109d4565b5060008267ffffffffffffffff811115610b0457610b036133ad565b5b604051908082528060200260200182016040528015610b3d57816020015b610b2a612d4f565b815260200190600190039081610b225790505b50905060005b84811015610d8f573373ffffffffffffffffffffffffffffffffffffffff16600b6000600184610b739190613a48565b815260200190815260200160002060020160009054906101000a900473ffffffffffffffffffffffffffffffffffffffff1673ffffffffffffffffffffffffffffffffffffffff161480610c3457503373ffffffffffffffffffffffffffffffffffffffff16600b6000600184610bea9190613a48565b815260200190815260200160002060030160009054906101000a900473ffffffffffffffffffffffffffffffffffffffff1673ffffffffffffffffffffffffffffffffffffffff16145b15610d82576000600182610c489190613a48565b90506000600b60008381526020019081526020016000209050806040518060c001604052908160008201548152602001600182015481526020016002820160009054906101000a900473ffffffffffffffffffffffffffffffffffffffff1673ffffffffffffffffffffffffffffffffffffffff1673ffffffffffffffffffffffffffffffffffffffff1681526020016003820160009054906101000a900473ffffffffffffffffffffffffffffffffffffffff1673ffffffffffffffffffffffffffffffffffffffff1673ffffffffffffffffffffffffffffffffffffffff168152602001600482015481526020016005820160009054906101000a900460ff161515151581525050848681518110610d6557610d64613a7c565b5b6020026020010181905250600185610d7d9190613a48565b945050505b8080600101915050610b43565b508094505050505090565b600080610da683611fb4565b9050600073ffffffffffffffffffffffffffffffffffffffff168173ffffffffffffffffffffffffffffffffffffffff1603610e17576040517f08c379a0000000000000000000000000000000000000000000000000000000008152600401610e0e90613af7565b60405180910390fd5b80915050919050565b6000600a54905090565b60008073ffffffffffffffffffffffffffffffffffffffff168273ffffffffffffffffffffffffffffffffffffffff1603610e9a576040517f08c379a0000000000000000000000000000000000000000000000000000000008152600401610e9190613b89565b60405180910390fd5b600360008373ffffffffffffffffffffffffffffffffffffffff1673ffffffffffffffffffffffffffffffffffffffff168152602001908152602001600020549050919050565b6000610eed6007611ff1565b6000610ef96007611fa6565b9050610f053382612007565b610f0f8185612025565b610f1981846120c9565b8091505092915050565b3373ffffffffffffffffffffffffffffffffffffffff16600b600083815260200190815260200160002060030160009054906101000a900473ffffffffffffffffffffffffffffffffffffffff1673ffffffffffffffffffffffffffffffffffffffff1614610fc7576040517f08c379a0000000000000000000000000000000000000000000000000000000008152600401610fbe90613c1b565b60405180910390fd5b6001600b600083815260200190815260200160002060050160006101000a81548160ff021916908315150217905550611001333083611cad565b50565b61100c612d4f565b600b60008381526020019081526020016000206040518060c001604052908160008201548152602001600182015481526020016002820160009054906101000a900473ffffffffffffffffffffffffffffffffffffffff1673ffffffffffffffffffffffffffffffffffffffff1673ffffffffffffffffffffffffffffffffffffffff1681526020016003820160009054906101000a900473ffffffffffffffffffffffffffffffffffffffff1673ffffffffffffffffffffffffffffffffffffffff1673ffffffffffffffffffffffffffffffffffffffff168152602001600482015481526020016005820160009054906101000a900460ff1615151515815250509050919050565b60606001805461112590613832565b80601f016020809104026020016040519081016040528092919081815260200182805461115190613832565b801561119e5780601f106111735761010080835404028352916020019161119e565b820191906000526020600020905b81548152906001019060200180831161118157829003601f168201915b5050505050905090565b6000600b60008381526020019081526020016000206004015490506000600b600084815260200190815260200160002060030160009054906101000a900473ffffffffffffffffffffffffffffffffffffffff16905081341015611241576040517f08c379a000000000000000000000000000000000000000000000000000000000815260040161123890613cad565b60405180910390fd5b6000600b600085815260200190815260200160002060050160006101000a81548160ff02191690831515021790555033600b600085815260200190815260200160002060030160006101000a81548173ffffffffffffffffffffffffffffffffffffffff021916908373ffffffffffffffffffffffffffffffffffffffff1602179055506001600b600085815260200190815260200160002060010160008282546112ec9190613a48565b92505081905550600c600084815260200190815260200160002060405180604001604052803373ffffffffffffffffffffffffffffffffffffffff16815260200184815250908060018154018082558091505060019003906000526020600020906002020160009091909190915060008201518160000160006101000a81548173ffffffffffffffffffffffffffffffffffffffff021916908373ffffffffffffffffffffffffffffffffffffffff1602179055506020820151816001015550506113b76008611ff1565b6113c2303385611cad565b8073ffffffffffffffffffffffffffffffffffffffff166108fc349081150290604051600060405180830381858888f19350505050158015611408573d6000803e3d6000fd5b50505050565b611420611419611b57565b838361240e565b5050565b61143561142f611b57565b83611c18565b611474576040517f08c379a000000000000000000000000000000000000000000000000000000000815260040161146b906139f9565b60405180910390fd5b6114808484848461257a565b50505050565b3373ffffffffffffffffffffffffffffffffffffffff16600960009054906101000a900473ffffffffffffffffffffffffffffffffffffffff1673ffffffffffffffffffffffffffffffffffffffff1614611516576040517f08c379a000000000000000000000000000000000000000000000000000000000815260040161150d90613d3f565b60405180910390fd5b80600a8190555050565b606061152b82611b0c565b600060066000848152602001908152602001600020805461154b90613832565b80601f016020809104026020016040519081016040528092919081815260200182805461157790613832565b80156115c45780601f10611599576101008083540402835291602001916115c4565b820191906000526020600020905b8154815290600101906020018083116115a757829003601f168201915b5050505050905060006115d56125d6565b905060008151036115ea57819250505061162d565b60008251111561161f578082604051602001611607929190613d9b565b6040516020818303038152906040529250505061162d565b611628846125ed565b925050505b919050565b61163a612d4f565b60006116466007611fa6565b9050600b60008281526020019081526020016000206040518060c001604052908160008201548152602001600182015481526020016002820160009054906101000a900473ffffffffffffffffffffffffffffffffffffffff1673ffffffffffffffffffffffffffffffffffffffff1673ffffffffffffffffffffffffffffffffffffffff1681526020016003820160009054906101000a900473ffffffffffffffffffffffffffffffffffffffff1673ffffffffffffffffffffffffffffffffffffffff1673ffffffffffffffffffffffffffffffffffffffff168152602001600482015481526020016005820160009054906101000a900460ff16151515158152505091505090565b600c602052816000526040600020818154811061176d57600080fd5b9060005260206000209060020201600091509150508060000160009054906101000a900473ffffffffffffffffffffffffffffffffffffffff16908060010154905082565b606060006117c06007611fa6565b905060008167ffffffffffffffff8111156117de576117dd6133ad565b5b60405190808252806020026020018201604052801561181757816020015b611804612d4f565b8152602001906001900390816117fc5790505b5090506000805b8381101561197b5760006001826118359190613a48565b90506000600b60008381526020019081526020016000209050806040518060c001604052908160008201548152602001600182015481526020016002820160009054906101000a900473ffffffffffffffffffffffffffffffffffffffff1673ffffffffffffffffffffffffffffffffffffffff1673ffffffffffffffffffffffffffffffffffffffff1681526020016003820160009054906101000a900473ffffffffffffffffffffffffffffffffffffffff1673ffffffffffffffffffffffffffffffffffffffff1673ffffffffffffffffffffffffffffffffffffffff168152602001600482015481526020016005820160009054906101000a900460ff16151515158152505085858151811061195257611951613a7c565b5b602002602001018190525060018461196a9190613a48565b93505050808060010191505061181e565b5081935050505090565b6000600560008473ffffffffffffffffffffffffffffffffffffffff1673ffffffffffffffffffffffffffffffffffffffff16815260200190815260200160002060008373ffffffffffffffffffffffffffffffffffffffff1673ffffffffffffffffffffffffffffffffffffffff16815260200190815260200160002060009054906101000a900460ff16905092915050565b6000611a256007611fa6565b905090565b60007f80ac58cd000000000000000000000000000000000000000000000000000000007bffffffffffffffffffffffffffffffffffffffffffffffffffffffff1916827bffffffffffffffffffffffffffffffffffffffffffffffffffffffff19161480611af557507f5b5e139f000000000000000000000000000000000000000000000000000000007bffffffffffffffffffffffffffffffffffffffffffffffffffffffff1916827bffffffffffffffffffffffffffffffffffffffffffffffffffffffff1916145b80611b055750611b0482612655565b5b9050919050565b611b15816126bf565b611b54576040517f08c379a0000000000000000000000000000000000000000000000000000000008152600401611b4b90613af7565b60405180910390fd5b50565b600033905090565b816004600083815260200190815260200160002060006101000a81548173ffffffffffffffffffffffffffffffffffffffff021916908373ffffffffffffffffffffffffffffffffffffffff160217905550808273ffffffffffffffffffffffffffffffffffffffff16611bd283610d9a565b73ffffffffffffffffffffffffffffffffffffffff167f8c5be1e5ebec7d5bd14f71427d1e84f3dd0314c0f7b2291e5b200ac8c7c3b92560405160405180910390a45050565b600080611c2483610d9a565b90508073ffffffffffffffffffffffffffffffffffffffff168473ffffffffffffffffffffffffffffffffffffffff161480611c665750611c658185611985565b5b80611ca457508373ffffffffffffffffffffffffffffffffffffffff16611c8c8461070f565b73ffffffffffffffffffffffffffffffffffffffff16145b91505092915050565b8273ffffffffffffffffffffffffffffffffffffffff16611ccd82610d9a565b73ffffffffffffffffffffffffffffffffffffffff1614611d23576040517f08c379a0000000000000000000000000000000000000000000000000000000008152600401611d1a90613e31565b60405180910390fd5b600073ffffffffffffffffffffffffffffffffffffffff168273ffffffffffffffffffffffffffffffffffffffff1603611d92576040517f08c379a0000000000000000000000000000000000000000000000000000000008152600401611d8990613ec3565b60405180910390fd5b611d9f8383836001612700565b8273ffffffffffffffffffffffffffffffffffffffff16611dbf82610d9a565b73ffffffffffffffffffffffffffffffffffffffff1614611e15576040517f08c379a0000000000000000000000000000000000000000000000000000000008152600401611e0c90613e31565b60405180910390fd5b6004600082815260200190815260200160002060006101000a81549073ffffffffffffffffffffffffffffffffffffffff02191690556001600360008573ffffffffffffffffffffffffffffffffffffffff1673ffffffffffffffffffffffffffffffffffffffff168152602001908152602001600020600082825403925050819055506001600360008473ffffffffffffffffffffffffffffffffffffffff1673ffffffffffffffffffffffffffffffffffffffff16815260200190815260200160002060008282540192505081905550816002600083815260200190815260200160002060006101000a81548173ffffffffffffffffffffffffffffffffffffffff021916908373ffffffffffffffffffffffffffffffffffffffff160217905550808273ffffffffffffffffffffffffffffffffffffffff168473ffffffffffffffffffffffffffffffffffffffff167fddf252ad1be2c89b69c2b068fc378daa952ba7f163c4a11628f55a4df523b3ef60405160405180910390a4611fa18383836001612706565b505050565b600081600001549050919050565b60006002600083815260200190815260200160002060009054906101000a900473ffffffffffffffffffffffffffffffffffffffff169050919050565b6001816000016000828254019250508190555050565b61202182826040518060200160405280600081525061270c565b5050565b61202e826126bf565b61206d576040517f08c379a000000000000000000000000000000000000000000000000000000000815260040161206490613f55565b60405180910390fd5b8060066000848152602001908152602001600020908161208d9190614121565b507ff8e1a15aba9398e019f0b49df1a4fde98ee17ae345cb5f6b5e2c27f5033e8ce7826040516120bd919061335b565b60405180910390a15050565b6000811161210c576040517f08c379a000000000000000000000000000000000000000000000000000000000815260040161210390614265565b60405180910390fd5b600c600083815260200190815260200160002060405180604001604052803073ffffffffffffffffffffffffffffffffffffffff1681526020016000815250908060018154018082558091505060019003906000526020600020906002020160009091909190915060008201518160000160006101000a81548173ffffffffffffffffffffffffffffffffffffffff021916908373ffffffffffffffffffffffffffffffffffffffff160217905550602082015181600101555050600c600083815260200190815260200160002060405180604001604052803373ffffffffffffffffffffffffffffffffffffffff16815260200183815250908060018154018082558091505060019003906000526020600020906002020160009091909190915060008201518160000160006101000a81548173ffffffffffffffffffffffffffffffffffffffff021916908373ffffffffffffffffffffffffffffffffffffffff1602179055506020820151816001015550506040518060c00160405280838152602001600281526020013073ffffffffffffffffffffffffffffffffffffffff1681526020013373ffffffffffffffffffffffffffffffffffffffff16815260200182815260200160011515815250600b6000848152602001908152602001600020600082015181600001556020820151816001015560408201518160020160006101000a81548173ffffffffffffffffffffffffffffffffffffffff021916908373ffffffffffffffffffffffffffffffffffffffff16021790555060608201518160030160006101000a81548173ffffffffffffffffffffffffffffffffffffffff021916908373ffffffffffffffffffffffffffffffffffffffff1602179055506080820151816004015560a08201518160050160006101000a81548160ff0219169083151502179055509050506123cb333084611cad565b817f9339409317fd01fabff48b703019016f49159bacc801ae872d2ca637d226e4c030338460006040516124029493929190614285565b60405180910390a25050565b8173ffffffffffffffffffffffffffffffffffffffff168373ffffffffffffffffffffffffffffffffffffffff160361247c576040517f08c379a000000000000000000000000000000000000000000000000000000000815260040161247390614316565b60405180910390fd5b80600560008573ffffffffffffffffffffffffffffffffffffffff1673ffffffffffffffffffffffffffffffffffffffff16815260200190815260200160002060008473ffffffffffffffffffffffffffffffffffffffff1673ffffffffffffffffffffffffffffffffffffffff16815260200190815260200160002060006101000a81548160ff0219169083151502179055508173ffffffffffffffffffffffffffffffffffffffff168373ffffffffffffffffffffffffffffffffffffffff167f17307eab39ab6107e8899845ad3d59bd9653f200f220920489ca2b5937696c318360405161256d9190612e67565b60405180910390a3505050565b612585848484611cad565b61259184848484612767565b6125d0576040517f08c379a00000000000000000000000000000000000000000000000000000000081526004016125c7906143a8565b60405180910390fd5b50505050565b606060405180602001604052806000815250905090565b60606125f882611b0c565b60006126026125d6565b90506000815111612622576040518060200160405280600081525061264d565b8061262c846128ee565b60405160200161263d929190613d9b565b6040516020818303038152906040525b915050919050565b60007f01ffc9a7000000000000000000000000000000000000000000000000000000007bffffffffffffffffffffffffffffffffffffffffffffffffffffffff1916827bffffffffffffffffffffffffffffffffffffffffffffffffffffffff1916149050919050565b60008073ffffffffffffffffffffffffffffffffffffffff166126e183611fb4565b73ffffffffffffffffffffffffffffffffffffffff1614159050919050565b50505050565b50505050565b61271683836129bc565b6127236000848484612767565b612762576040517f08c379a0000000000000000000000000000000000000000000000000000000008152600401612759906143a8565b60405180910390fd5b505050565b60006127888473ffffffffffffffffffffffffffffffffffffffff16612bd9565b156128e1578373ffffffffffffffffffffffffffffffffffffffff1663150b7a026127b1611b57565b8786866040518563ffffffff1660e01b81526004016127d3949392919061441d565b6020604051808303816000875af192505050801561280f57506040513d601f19601f8201168201806040525081019061280c919061447e565b60015b612891573d806000811461283f576040519150601f19603f3d011682016040523d82523d6000602084013e612844565b606091505b506000815103612889576040517f08c379a0000000000000000000000000000000000000000000000000000000008152600401612880906143a8565b60405180910390fd5b805181602001fd5b63150b7a0260e01b7bffffffffffffffffffffffffffffffffffffffffffffffffffffffff1916817bffffffffffffffffffffffffffffffffffffffffffffffffffffffff1916149150506128e6565b600190505b949350505050565b6060600060016128fd84612bfc565b01905060008167ffffffffffffffff81111561291c5761291b6133ad565b5b6040519080825280601f01601f19166020018201604052801561294e5781602001600182028036833780820191505090505b509050600082602001820190505b6001156129b1578080600190039150507f3031323334353637383961626364656600000000000000000000000000000000600a86061a8153600a85816129a5576129a46144ab565b5b0494506000850361295c575b819350505050919050565b600073ffffffffffffffffffffffffffffffffffffffff168273ffffffffffffffffffffffffffffffffffffffff1603612a2b576040517f08c379a0000000000000000000000000000000000000000000000000000000008152600401612a2290614526565b60405180910390fd5b612a34816126bf565b15612a74576040517f08c379a0000000000000000000000000000000000000000000000000000000008152600401612a6b90614592565b60405180910390fd5b612a82600083836001612700565b612a8b816126bf565b15612acb576040517f08c379a0000000000000000000000000000000000000000000000000000000008152600401612ac290614592565b60405180910390fd5b6001600360008473ffffffffffffffffffffffffffffffffffffffff1673ffffffffffffffffffffffffffffffffffffffff16815260200190815260200160002060008282540192505081905550816002600083815260200190815260200160002060006101000a81548173ffffffffffffffffffffffffffffffffffffffff021916908373ffffffffffffffffffffffffffffffffffffffff160217905550808273ffffffffffffffffffffffffffffffffffffffff16600073ffffffffffffffffffffffffffffffffffffffff167fddf252ad1be2c89b69c2b068fc378daa952ba7f163c4a11628f55a4df523b3ef60405160405180910390a4612bd5600083836001612706565b5050565b6000808273ffffffffffffffffffffffffffffffffffffffff163b119050919050565b600080600090507a184f03e93ff9f4daa797ed6e38ed64bf6a1f0100000000000000008310612c5a577a184f03e93ff9f4daa797ed6e38ed64bf6a1f0100000000000000008381612c5057612c4f6144ab565b5b0492506040810190505b6d04ee2d6d415b85acef81000000008310612c97576d04ee2d6d415b85acef81000000008381612c8d57612c8c6144ab565b5b0492506020810190505b662386f26fc100008310612cc657662386f26fc100008381612cbc57612cbb6144ab565b5b0492506010810190505b6305f5e1008310612cef576305f5e1008381612ce557612ce46144ab565b5b0492506008810190505b6127108310612d14576127108381612d0a57612d096144ab565b5b0492506004810190505b60648310612d375760648381612d2d57612d2c6144ab565b5b0492506002810190505b600a8310612d46576001810190505b80915050919050565b6040518060c001604052806000815260200160008152602001600073ffffffffffffffffffffffffffffffffffffffff168152602001600073ffffffffffffffffffffffffffffffffffffffff168152602001600081526020016000151581525090565b6000604051905090565b600080fd5b600080fd5b60007fffffffff0000000000000000000000000000000000000000000000000000000082169050919050565b612dfc81612dc7565b8114612e0757600080fd5b50565b600081359050612e1981612df3565b92915050565b600060208284031215612e3557612e34612dbd565b5b6000612e4384828501612e0a565b91505092915050565b60008115159050919050565b612e6181612e4c565b82525050565b6000602082019050612e7c6000830184612e58565b92915050565b600081519050919050565b600082825260208201905092915050565b60005b83811015612ebc578082015181840152602081019050612ea1565b60008484015250505050565b6000601f19601f8301169050919050565b6000612ee482612e82565b612eee8185612e8d565b9350612efe818560208601612e9e565b612f0781612ec8565b840191505092915050565b60006020820190508181036000830152612f2c8184612ed9565b905092915050565b6000819050919050565b612f4781612f34565b8114612f5257600080fd5b50565b600081359050612f6481612f3e565b92915050565b600060208284031215612f8057612f7f612dbd565b5b6000612f8e84828501612f55565b91505092915050565b600073ffffffffffffffffffffffffffffffffffffffff82169050919050565b6000612fc282612f97565b9050919050565b612fd281612fb7565b82525050565b6000602082019050612fed6000830184612fc9565b92915050565b612ffc81612fb7565b811461300757600080fd5b50565b60008135905061301981612ff3565b92915050565b6000806040838503121561303657613035612dbd565b5b60006130448582860161300a565b925050602061305585828601612f55565b9150509250929050565b60008060006060848603121561307857613077612dbd565b5b60006130868682870161300a565b93505060206130978682870161300a565b92505060406130a886828701612f55565b9150509250925092565b600081519050919050565b600082825260208201905092915050565b6000819050602082019050919050565b6130e781612fb7565b82525050565b6130f681612f34565b82525050565b60408201600082015161311260008501826130de565b50602082015161312560208501826130ed565b50505050565b600061313783836130fc565b60408301905092915050565b6000602082019050919050565b600061315b826130b2565b61316581856130bd565b9350613170836130ce565b8060005b838110156131a1578151613188888261312b565b975061319383613143565b925050600181019050613174565b5085935050505092915050565b600060208201905081810360008301526131c88184613150565b905092915050565b600081519050919050565b600082825260208201905092915050565b6000819050602082019050919050565b600061320782612f97565b9050919050565b613217816131fc565b82525050565b61322681612e4c565b82525050565b60c08201600082015161324260008501826130ed565b50602082015161325560208501826130ed565b506040820151613268604085018261320e565b50606082015161327b606085018261320e565b50608082015161328e60808501826130ed565b5060a08201516132a160a085018261321d565b50505050565b60006132b3838361322c565b60c08301905092915050565b6000602082019050919050565b60006132d7826131d0565b6132e181856131db565b93506132ec836131ec565b8060005b8381101561331d57815161330488826132a7565b975061330f836132bf565b9250506001810190506132f0565b5085935050505092915050565b6000602082019050818103600083015261334481846132cc565b905092915050565b61335581612f34565b82525050565b6000602082019050613370600083018461334c565b92915050565b60006020828403121561338c5761338b612dbd565b5b600061339a8482850161300a565b91505092915050565b600080fd5b600080fd5b7f4e487b7100000000000000000000000000000000000000000000000000000000600052604160045260246000fd5b6133e582612ec8565b810181811067ffffffffffffffff82111715613404576134036133ad565b5b80604052505050565b6000613417612db3565b905061342382826133dc565b919050565b600067ffffffffffffffff821115613443576134426133ad565b5b61344c82612ec8565b9050602081019050919050565b82818337600083830152505050565b600061347b61347684613428565b61340d565b905082815260208101848484011115613497576134966133a8565b5b6134a2848285613459565b509392505050565b600082601f8301126134bf576134be6133a3565b5b81356134cf848260208601613468565b91505092915050565b600080604083850312156134ef576134ee612dbd565b5b600083013567ffffffffffffffff81111561350d5761350c612dc2565b5b613519858286016134aa565b925050602061352a85828601612f55565b9150509250929050565b60c08201600082015161354a60008501826130ed565b50602082015161355d60208501826130ed565b506040820151613570604085018261320e565b506060820151613583606085018261320e565b50608082015161359660808501826130ed565b5060a08201516135a960a085018261321d565b50505050565b600060c0820190506135c46000830184613534565b92915050565b6135d381612e4c565b81146135de57600080fd5b50565b6000813590506135f0816135ca565b92915050565b6000806040838503121561360d5761360c612dbd565b5b600061361b8582860161300a565b925050602061362c858286016135e1565b9150509250929050565b600067ffffffffffffffff821115613651576136506133ad565b5b61365a82612ec8565b9050602081019050919050565b600061367a61367584613636565b61340d565b905082815260208101848484011115613696576136956133a8565b5b6136a1848285613459565b509392505050565b600082601f8301126136be576136bd6133a3565b5b81356136ce848260208601613667565b91505092915050565b600080600080608085870312156136f1576136f0612dbd565b5b60006136ff8782880161300a565b94505060206137108782880161300a565b935050604061372187828801612f55565b925050606085013567ffffffffffffffff81111561374257613741612dc2565b5b61374e878288016136a9565b91505092959194509250565b6000806040838503121561377157613770612dbd565b5b600061377f85828601612f55565b925050602061379085828601612f55565b9150509250929050565b60006040820190506137af6000830185612fc9565b6137bc602083018461334c565b9392505050565b600080604083850312156137da576137d9612dbd565b5b60006137e88582860161300a565b92505060206137f98582860161300a565b9150509250929050565b7f4e487b7100000000000000000000000000000000000000000000000000000000600052602260045260246000fd5b6000600282049050600182168061384a57607f821691505b60208210810361385d5761385c613803565b5b50919050565b7f4552433732313a20617070726f76616c20746f2063757272656e74206f776e6560008201527f7200000000000000000000000000000000000000000000000000000000000000602082015250565b60006138bf602183612e8d565b91506138ca82613863565b604082019050919050565b600060208201905081810360008301526138ee816138b2565b9050919050565b7f4552433732313a20617070726f76652063616c6c6572206973206e6f7420746f60008201527f6b656e206f776e6572206f7220617070726f76656420666f7220616c6c000000602082015250565b6000613951603d83612e8d565b915061395c826138f5565b604082019050919050565b6000602082019050818103600083015261398081613944565b9050919050565b7f4552433732313a2063616c6c6572206973206e6f7420746f6b656e206f776e6560008201527f72206f7220617070726f76656400000000000000000000000000000000000000602082015250565b60006139e3602d83612e8d565b91506139ee82613987565b604082019050919050565b60006020820190508181036000830152613a12816139d6565b9050919050565b7f4e487b7100000000000000000000000000000000000000000000000000000000600052601160045260246000fd5b6000613a5382612f34565b9150613a5e83612f34565b9250828201905080821115613a7657613a75613a19565b5b92915050565b7f4e487b7100000000000000000000000000000000000000000000000000000000600052603260045260246000fd5b7f4552433732313a20696e76616c696420746f6b656e2049440000000000000000600082015250565b6000613ae1601883612e8d565b9150613aec82613aab565b602082019050919050565b60006020820190508181036000830152613b1081613ad4565b9050919050565b7f4552433732313a2061646472657373207a65726f206973206e6f74206120766160008201527f6c6964206f776e65720000000000000000000000000000000000000000000000602082015250565b6000613b73602983612e8d565b9150613b7e82613b17565b604082019050919050565b60006020820190508181036000830152613ba281613b66565b9050919050565b7f4f6e6c792043757272656e74206f776e65722063616e206c697374206974656d60008201527f20666f722073616c650000000000000000000000000000000000000000000000602082015250565b6000613c05602983612e8d565b9150613c1082613ba9565b604082019050919050565b60006020820190508181036000830152613c3481613bf8565b9050919050565b7f506c65617365207375626d6974207468652061736b696e67207072696365206960008201527f6e206f7264657220746f20636f6d706c65746520746865207075726368617365602082015250565b6000613c97604083612e8d565b9150613ca282613c3b565b604082019050919050565b60006020820190508181036000830152613cc681613c8a565b9050919050565b7f4f6e6c79206f776e65722063616e20757064617465206c697374696e6720707260008201527f6963650000000000000000000000000000000000000000000000000000000000602082015250565b6000613d29602383612e8d565b9150613d3482613ccd565b604082019050919050565b60006020820190508181036000830152613d5881613d1c565b9050919050565b600081905092915050565b6000613d7582612e82565b613d7f8185613d5f565b9350613d8f818560208601612e9e565b80840191505092915050565b6000613da78285613d6a565b9150613db38284613d6a565b91508190509392505050565b7f4552433732313a207472616e736665722066726f6d20696e636f72726563742060008201527f6f776e6572000000000000000000000000000000000000000000000000000000602082015250565b6000613e1b602583612e8d565b9150613e2682613dbf565b604082019050919050565b60006020820190508181036000830152613e4a81613e0e565b9050919050565b7f4552433732313a207472616e7366657220746f20746865207a65726f2061646460008201527f7265737300000000000000000000000000000000000000000000000000000000602082015250565b6000613ead602483612e8d565b9150613eb882613e51565b604082019050919050565b60006020820190508181036000830152613edc81613ea0565b9050919050565b7f45524337323155524953746f726167653a2055524920736574206f66206e6f6e60008201527f6578697374656e7420746f6b656e000000000000000000000000000000000000602082015250565b6000613f3f602e83612e8d565b9150613f4a82613ee3565b604082019050919050565b60006020820190508181036000830152613f6e81613f32565b9050919050565b60008190508160005260206000209050919050565b60006020601f8301049050919050565b600082821b905092915050565b600060088302613fd77fffffffffffffffffffffffffffffffffffffffffffffffffffffffffffffffff82613f9a565b613fe18683613f9a565b95508019841693508086168417925050509392505050565b6000819050919050565b600061401e61401961401484612f34565b613ff9565b612f34565b9050919050565b6000819050919050565b61403883614003565b61404c61404482614025565b848454613fa7565b825550505050565b600090565b614061614054565b61406c81848461402f565b505050565b5b8181101561409057614085600082614059565b600181019050614072565b5050565b601f8211156140d5576140a681613f75565b6140af84613f8a565b810160208510156140be578190505b6140d26140ca85613f8a565b830182614071565b50505b505050565b600082821c905092915050565b60006140f8600019846008026140da565b1980831691505092915050565b600061411183836140e7565b9150826002028217905092915050565b61412a82612e82565b67ffffffffffffffff811115614143576141426133ad565b5b61414d8254613832565b614158828285614094565b600060209050601f83116001811461418b5760008415614179578287015190505b6141838582614105565b8655506141eb565b601f19841661419986613f75565b60005b828110156141c15784890151825560018201915060208501945060208101905061419c565b868310156141de57848901516141da601f8916826140e7565b8355505b6001600288020188555050505b505050505050565b7f4d616b652073757265207468652070726963652069736e2774206e656761746960008201527f7665000000000000000000000000000000000000000000000000000000000000602082015250565b600061424f602283612e8d565b915061425a826141f3565b604082019050919050565b6000602082019050818103600083015261427e81614242565b9050919050565b600060808201905061429a6000830187612fc9565b6142a76020830186612fc9565b6142b4604083018561334c565b6142c16060830184612e58565b95945050505050565b7f4552433732313a20617070726f766520746f2063616c6c657200000000000000600082015250565b6000614300601983612e8d565b915061430b826142ca565b602082019050919050565b6000602082019050818103600083015261432f816142f3565b9050919050565b7f4552433732313a207472616e7366657220746f206e6f6e20455243373231526560008201527f63656976657220696d706c656d656e7465720000000000000000000000000000602082015250565b6000614392603283612e8d565b915061439d82614336565b604082019050919050565b600060208201905081810360008301526143c181614385565b9050919050565b600081519050919050565b600082825260208201905092915050565b60006143ef826143c8565b6143f981856143d3565b9350614409818560208601612e9e565b61441281612ec8565b840191505092915050565b60006080820190506144326000830187612fc9565b61443f6020830186612fc9565b61444c604083018561334c565b818103606083015261445e81846143e4565b905095945050505050565b60008151905061447881612df3565b92915050565b60006020828403121561449457614493612dbd565b5b60006144a284828501614469565b91505092915050565b7f4e487b7100000000000000000000000000000000000000000000000000000000600052601260045260246000fd5b7f4552433732313a206d696e7420746f20746865207a65726f2061646472657373600082015250565b6000614510602083612e8d565b915061451b826144da565b602082019050919050565b6000602082019050818103600083015261453f81614503565b9050919050565b7f4552433732313a20746f6b656e20616c7265616479206d696e74656400000000600082015250565b600061457c601c83612e8d565b915061458782614546565b602082019050919050565b600060208201905081810360008301526145ab8161456f565b905091905056fea26469706673582212207c9fa2b72867ff92001facf4b90cf9785d7d1ebe67d9d0a74f904b612cb19aac64736f6c63430008180033",
  "linkReferences": {},
  "deployedLinkReferences": {}
}